S0110000534454455354494E472E737265635E
S11300000C9434000C9451000C9451000C94510045
S11300100C9451000C9451000C9451000C94510018
S11300200C9451000C9451000C9451000C94510008
S11300300C9451000C9451000C9451000C945100F8
S11300400C9451000C9451000C9451000C945100E8
S11300500C9451000C9451000C9451000C945100D8
S11300600C9451000C94510011241FBECFEFD8E022
S1130070DEBFCDBF11E0A0E0B1E0E4EBF5E102C0EA
S113008005900D92A235B107D9F721E0A2E5B1E0C0
S113009001C01D92A538B207E1F70E94A3000C9499
S11300A0D80A0C940000229A239A259A2C9A08952F
S11300B002D02A9801C02A9A8FEF98E087FD2B9AE4
S11300C087FF2B98880F1C9983952D9A2D989A95C4
S11300D0A9F70895FB0183E080935700E895809188
S11300E0570080FDFCCF81E180935700E895089587
S11300F00F921F92FB01DA0190E40D901D9081E0B4
S113010080935700E89532969A95B9F7FB0185E0FC
S113011080935700E8958091570080FDFCCF81E1E2
S113012080935700E8951F900F9008959F938F93A5
S11301308CE191E09F938F930E940D080F900F9094
S11301400F900F900895EF92FF920F931F93CF9308
S1130150DF93CDB7DEB7A2970FB6F894DEBF0FBE1C
S1130160CDBF0E94B5070E94C60785E591E00E94B5
S1130170CE03882321F087E291E00E94960087E471
S113018091E00E94FE04882321F080E391E00E9424
S113019096008E010F5F1F4F0F2EF0E4EF2EF1E05B
S11301A0FF2EF02DAE014F5D5F4F60E270E0C8019D
S11301B00E94AA06882321F088E391E00E94960019
S11301C029A13AA12115310579F03F932F931F936B
S11301D00F93FF92EF920E940D080F900F900F90D3
S11301E00F900F900F90DECF80E090E0A2960FB6B4
S11301F0F894DEBF0FBECDBFDF91CF911F910F9159
S1130200FF90EF900895FF920F931F93CF93DF9386
S1130210C82FD42F152F062FF72E88234CF440E037
S113022050E0BA0187E70E940301823020F5CF77BE
S11302300E9458008C2F0E945D008F2D0E945D004B
S1130240802F0E945D00812F0E945D008D2F0E94EF
S11302505D00C03421F0C83421F487E803C085E987
S113026001C081E00E945D00CAE00E945C00882316
S113027014F4C150D1F7DF91CF911F910F91FF90EA
S11302800895CF92DF92EF92FF920F931F93CF9333
S1130290DF9300D000D0CDB7DEB70E94530084E6D0
S11302A0EFE8F1E03197F1F700C000008150C1F7A9
S11302B01AE00E945B001150E1F740E050E0BA01FF
S11302C080E40E940301813009F089C04AEA51E0C8
S11302D060E070E088E40E940301813009F048C0C6
S11302E0CE0101967C016E0195E0C90ED11C8701F7
S11302F00E945C00F80181938F01EC15FD05C1F7A4
S11303008B81813009F06DC08C818A3A61F0F12CC7
S113031078C08FE891E00197F1F700C00000015028
S1130320110919F460C000E117E240E050E060E018
S113033070E489EE0E9403018111EBCF012B09F4D3
S113034054C040E050E0BA018AE70E9403018111E1
S11303504EC00E945C00F70181937F01EC15FD05FE
S1130360C1F7898186FD45C06894FF24F2F849C02D
S113037040E050E0BA0189EE0E940301823038F077
S1130380FF24F3940F2EF1E4EF2EF02D07C06894B0
S1130390FF24F1F80F2EF9EEEF2EF02D00E117E215
S11303A009C08FE891E00197F1F700C00000015007
S11303B0110921F140E050E0BA018E2D0E940301A1
S11303C08111EFCF012BE1F040E052E060E070E0FA
S11303D080E50E9403018823A1F0F12C12C0F12CC6
S11303E010C0F12C0EC0F12C0CC0F12C0AC0F12C61
S11303F008C00F2EFCE0FF2EF02D03C0F12C01C02D
S1130400F12CF09252010E945B0081E0F11080E037
S11304100F900F900F900F90DF91CF911F910F913C
S1130420FF90EF90DF90CF900895CF92DF92EF92FC
S1130430FF920F931F93CF93DF93C82ED92E790188
S11304408091520183FD09C0032E39E0440F551FEA
S1130450661F771F3A95D1F7302D81E50E9403017D
S113046081112BC0C0E4DCE90E945C008F3F21F4C1
S11304702197D1F7C1E024C08E3F09F5C2E0D2E054
S1130480C01BD10BCE19DF09E114F10431F00E9435
S11304905C0081E0E81AF108D1F7EC2CFD2C0E94F5
S11304A05C00F70181937F0101501109C1F70E949B
S11304B05C002197E1F7C0E003C0C1E001C0C1E0E6
S11304C00E945B008C2FDF91CF911F910F91FF90C1
S11304D0EF90DF90CF9008950F931F93E091530115
S11304E0F09154019B01AC01225031094109510999
S11304F086819781A085B1850297A109B109281742
S113050039074A075B0768F4A281B0E00E94F30749
S11305100289138924893589600F711F821F931FF3
S113052003C060E070E0CB011F910F9108950F9319
S11305301F93CF93DF93FC01A0915301B091540119
S11305401182108264817581868197816130710581
S11305508105910591F116960D911D912D913C9176
S11305601997601771078207930748F5EF01611522
S113057071058105910529F58C91833039F51E9615
S11305806D917D918D919C91519760877187828740
S11305909387611571058105910519F00E946C021C
S11305A006C01E966D917D918D919C9151976C879B
S11305B07D878E879F8780E00EC081E00CC081E03C
S11305C00AC06087718782879387E8CF1086118677
S11305D012861386E6CFDF91CF911F910F91089574
S11305E0CF92DF92EF92FF920F931F93CF93DF93FB
S11305F0EC016A017B0102E010E02EEF31E00E9481
S11306001502811126C08881998185359A4A19F588
S113061026E330E0B701A601CE010E941502811144
S113062005C08881998186349144B9F002E010E0D4
S113063022E530E0B701A601CE010E941502811126
S11306400EC081E0288139812634314449F480E0A8
S113065007C083E005C082E003C080E001C081E000
S1130660DF91CF911F910F91FF90EF90DF90CF908A
S11306700895CF92DF92EF92FF920F931F93CF933F
S1130680DF9300D000D0CDB7DEB7E0915301F091F5
S11306905401623071058105910508F45AC0068140
S11306A0178120853185601771078207930708F049
S11306B055C02081223019F0233001F154C09B0130
S11306C03327220F331FBB27A92F982F872FC284CC
S11306D0D384E484F584AC01BD014C0D5D1D6E1D15
S11306E07F1D02E010E0CE0101960E9415028111E7
S11306F03FC069817A8180E090E043C09B012F77FD
S11307003327220F331F220F331FDC01CB016894E0
S113071016F8B695A795979587951694D1F7C28440
S1130720D384E484F584AC01BD014C0D5D1D6E1DC4
S11307307F1D04E010E0CE0101960E941502811194
S11307401CC089819A81AB81BC81BC01CD019F70A1
S113075018C061E070E080E090E013C061E070E0F8
S113076080E090E00EC061E070E080E090E009C0BD
S113077061E070E080E090E004C061E070E080E05F
S113078090E00F900F900F900F90DF91CF911F91F9
S11307900F91FF90EF90DF90CF9008954F925F926A
S11307A06F927F928F929F92AF92BF92EF92FF923D
S11307B00F931F93CF93DF93CDB7DEB7A8970FB6F0
S11307C0F894DEBF0FBECDBF7C011092540110928D
S11307D053010E94410180FDC6C040E050E0BA01CF
S11307E0CE0101960E94F0028130E1F400E110E0B4
S11307F02EEB31E040E050E0BA01CE0101960E94B8
S113080015028111B2C08D81882309F4B0C0898496
S11308109A84AB84BC84B501A401CE0101960E94E4
S1130820F00203C0812C912C5401833009F4A1C03F
S11308308111A1C004E210E02DE030E0B501A40173
S1130840CE0101960E941502811197C02A853B852D
S113085040E050E0211531054105510521F4288D72
S1130860398D4A8D5B8DAC81B0E00E94F3076DA396
S11308707EA38FA398A70A811B8120E030E0800E1D
S1130880911EA21EB31ED7011A968D929D92AD920F
S1130890BC921D97498112964C9312974D805E80AD
S11308A015965C924E9214978F819885A0E0B0E0E3
S11308B00097A105B10521F48C899D89AE89BF8972
S11308C05694479456944794569447945694479410
S11308D0612C712C801B910BA20BB30B0DA11EA1DB
S11308E02FA138A5801B910BA20BB30BBC01CD012A
S11308F06419750986099709242F30E040E050E017
S11309000E94D107DA01C9010296A11DB11DF701A8
S113091086839783A087B187BA01A901465F5F40A8
S1130920610971094F3F5F4E6105710578F127C078
S1130930840C951CA61CB71C0DA11EA12FA138A5C3
S1130940800E911EA21EB31ED70152968D929D92C7
S1130950AD92BC92559711961C92F0925401E0927C
S1130960530180E036C082E034C081E032C086E0CA
S113097030C081E02EC086E02CC081E02AC0873FD1
S11309809F4FA105B10538F486E023C0873F9F4FF0
S1130990A105B10568F083E0D7018C9388A199A1E2
S11309A0AAA1BBA1F70186879787A08BB18BC0CF83
S11309B082E0D7018C938DA19EA1AFA1B8A5880D2B
S11309C0991DAA1DBB1DF70186879787A08BB18B44
S11309D0AFCFA8960FB6F894DEBF0FBECDBFDF91A0
S11309E0CF911F910F91FF90EF90BF90AF909F9088
S11309F08F907F906F905F904F9008952F923F92C9
S1130A004F925F926F927F928F929F92AF92BF921A
S1130A10CF92DF92EF92FF920F931F93CF93DF93C6
S1130A20CDB7DEB7EC970FB6F894DEBF0FBECDBFDF
S1130A306C01A0905301B0905401A114B10409F4C5
S1130A4055C1F5011182CE0141969C838B83F60139
S1130A508081803229F431966F0181918032E1F3F3
S1130A608F3219F4FFEFCF1ADF0A1D821E821F8214
S1130A701886F6018081803238F4CE0101960E94F6
S1130A809702982F1D8EFBC06894FF24F5F8612C03
S1130A906894442443F8342C55245394E52C762C40
S1130AA0212CAB81BC81FD01CD010B96F192E8179D
S1130AB0F907E1F7962D862D342D01C0822F21E010
S1130AC0280FF601E80FF11D8081813268F08F3222
S1130AD059F08E3209F412C1931730F4FD01E90F75
S1130AE0F11D80839F5FEACFC20ED11C952D813208
S1130AF008F0962D1B969C93CE0101960E949702B6
S1130B00982F8111BCC029813A812F703327220F7D
S1130B10331F22953295307F3227207F32274D852F
S1130B205E856F85788900E210E0CE014D960E94C3
S1130B3015029E2D811101C0972D9111A0C08D8D9C
S1130B40882309F4EBC068A563FD11C04B815C8167
S1130B50DE015D96FA019A01255F3F4F04C0E2175A
S1130B60F30709F466C09D9181919817C1F38090B1
S1130B7053019090540109811A810F5F1F4F09F4AA
S1130B80C3C08D859E85AF85B8890097A105B10541
S1130B9009F4BCC098012F703327232B09F046C0F9
S1130BA00196A11DB11D8D879E87AF87B88B49859E
S1130BB05A856B857C85411551056105710541F4A4
S1130BC0F401848195810817190708F0A1C02EC08B
S1130BD0F401828190E001979801329522952F705B
S1130BE023273F70232782239323892BF9F4CB01F6
S1130BF0BA010E943903623071058105910508F438
S1130C0089C0F401268137814085518562177307B5
S1130C108407950708F080C069877A878B879C874B
S1130C200E946C026D877E878F87988B1A83098355
S1130C306ACFFA018385811124C064FF71C0E091F9
S1130C405301F09154018081833041F489A99AA918
S1130C50A0E0B0E0DC019927882704C0822D90E051
S1130C60A0E0B0E04FA958AD60E070E0842B952B74
S1130C70A62BB72B8D839E83AF83B88712CF911198
S1130C8037C08D8D8823B1F188A584FD35C0E091EE
S1130C905301F09154018081833041F489A99AA9C8
S1130CA0A0E0B0E0DC019927882703C080E090E051
S1130CB0DC014FA958AD60E070E0842B952BA62B86
S1130CC0B72BF501868F978FA0A3B1A389AD9AADF9
S1130CD0ABADBCAD828F938FA48FB58F168A178A64
S1130CE0108E118E81E0818380E01BC085E019C0E5
S1130CF0892F17C083E015C083E013C0383009F092
S1130D00F3CE932D3BE0DACE83E00BC083E009C041
S1130D1083E007C081E005C083E003C093E0AFCF68
S1130D2083E0EC960FB6F894DEBF0FBECDBFDF9123
S1130D30CF911F910F91FF90EF90DF90CF90BF90D4
S1130D40AF909F908F907F906F905F904F903F9067
S1130D502F9008952F923F924F925F926F927F92BD
S1130D608F929F92AF92BF92CF92DF92EF92FF92B7
S1130D700F931F93CF93DF932C016B013A01E09003
S1130D805301F0905401FA0111821082E114F1042C
S1130D9009F4BBC0F701818180FFB9C0828D938DB6
S1130DA0A48DB58D46895789608D718D841B950BF3
S1130DB0A60BB70BA60160E070E084179507A607A1
S1130DC0B70708F46C01C114D10409F4A2C052019C
S1130DD0812C6894992491F8312C212CF70186896F
S1130DE09789A08DB18DAC01BD015170662777271D
S1130DF0452B462B472B09F048C0C281C150AC019A
S1130E00BD01032E39E076956795579547953A9538
S1130E10D1F7302DC423F1F4892B8A2B8B2B29F4A1
S1130E20668D778D80A191A107C0F70162A173A19E
S1130E3084A195A10E943903623071058105910551
S1130E4020F4F701118281E065C0F70162A373A366
S1130E5084A395A3F70162A173A184A195A10E9423
S1130E606C02611571058105910521F4F701118268
S1130E7081E050C0DC01CB018C0F911DA11DB11D7F
S1130E80F70186A397A3A0A7B1A7F70126893789FD
S1130E903170C401821B930BE6018C159D0508F487
S1130EA0EC01F70146A157A160A571A541145104B5
S1130EB019F08A2D9B2D02C0832D922D8E010E9444
S1130EC01502882321F0F701118281E023C0F70184
S1130ED086899789A08DB18D8C0F9D1FA11DB11D91
S1130EE0868B978BA08FB18FAC0EBD1ECC1ADD0AFA
S1130EF0F30180819181C80FD91FD183C083C114AC
S1130F00D10409F06BCF80E005C085E003C084E024
S1130F1001C080E0DF91CF911F910F91FF90EF907E
S1130F20DF90CF90BF90AF909F908F907F906F9005
S1130F305F904F903F902F900895CF93C82F8A30A1
S1130F4019F48DE00E949D07E0ECF0E0908195FF9C
S1130F50FDCFC093C600CF910895E0ECF0E080810E
S1130F608823ECF78091C60008951092C50087E6A7
S1130F708093C400E0ECF0E080818D7F808386E084
S1130F808093C20088E18093C1000895EFE7F1E007
S1130F908EE091E09383828380E091E0918380836B
S1130FA00895A1E21A2EAA1BBB1BFD010DC0AA1FA6
S1130FB0BB1FEE1FFF1FA217B307E407F50720F0BE
S1130FC0A21BB30BE40BF50B661F771F881F991F39
S1130FD01A9469F760957095809590959B01AC0182
S1130FE0BD01CF0108950E94FE07A59F900DB49FF7
S1130FF0900DA49F800D911D11240895A29FB0010E
S1131000B39FC001A39F700D811D1124911DB29F38
S1131010700D811D1124911D0895A0E0B0E0E3E15D
S1131020F8E00C94B10AAE014B5F5F4FFA01619195
S11310307191AF0180918101909182010E942308F6
S1131040E2E00C94CD0AACE0B0E0E9E2F8E00C9404
S1131050A10A7C016B018A01FC011782168283813B
S113106081FFBDC1CE0101964C01F7019381F601C8
S113107093FD859193FF81916F01882309F4ABC19E
S1131080853239F493FD859193FF81916F01853207
S113109029F4B70190E00E940B0AE7CF512C312CC0
S11310A020E02032A0F48B3269F030F4803259F021
S11310B0833269F420612CC08D3239F0803339F4E5
S11310C0216026C02260246023C0286021C027FD3F
S11310D027C030ED380F3A3078F426FF06C0FAE026
S11310E05F9E300D1124532E13C08AE0389E300DBC
S11310F01124332E20620CC08E3221F426FD6BC1E4
S1131100206406C08C3611F4206802C0883641F48D
S1131110F60193FD859193FF81916F018111C1CFF8
S1131120982F9F7D9554933028F40C5F1F4FFFE355
S1131130F9830DC0833631F0833771F0833509F0BC
S11311405BC022C0F801808189830E5F1F4F442455
S11311504394512C540115C03801F2E06F0E711CF8
S1131160F801A080B18026FF03C0652D70E002C0A5
S11311706FEF7FEFC5012C870E94000A2C018301C9
S11311802C852F77222E17C03801F2E06F0E711CC8
S1131190F801A080B18026FF03C0652D70E002C075
S11311A06FEF7FEFC5012C870E94F5092C012C8578
S11311B02068222E830123FC1BC0832D90E0481657
S11311C05906B0F4B70180E290E00E940B0A3A9409
S11311D0F4CFF50127FC859127FE81915F01B701CA
S11311E090E00E940B0A31103A94F1E04F1A510832
S11311F04114510471F7E5C0843611F0893639F58C
S1131200F80127FF07C060817181828193810C5F9F
S11312101F4F08C060817181072E000C880B990B49
S11312200E5F1F4F2F76722E97FF09C09095809501
S1131230709561957F4F8F4F9F4F2068722E2AE0E3
S113124030E0A4010E94430AA82EA81844C08537A0
S113125029F42F7EB22E2AE030E025C0F22FF97F48
S1131260BF2E8F36C1F018F4883579F0B4C08037BA
S113127019F0883721F0AFC02F2F2061B22EB4FEB1
S11312800DC08B2D8460B82E09C024FF0AC09F2F87
S11312909660B92E06C028E030E005C020E130E0B9
S11312A002C020E132E0F801B7FE07C0608171811D
S11312B0828193810C5F1F4F06C06081718180E041
S11312C090E00E5F1F4FA4010E94430AA82EA818A5
S11312D0FB2DFF777F2E76FE0BC0372D3E7FA514A6
S11312E050F474FE0AC072FC08C0372D3E7E05C05F
S11312F0BA2C372D03C0BA2C01C0B52C34FF0DC055
S1131300FE01EA0DF11D8081803311F4397E09C09C
S113131032FF06C0B394B39404C0832F867809F0D7
S1131320B39433FD13C030FF06C05A2CB31418F421
S1131330530C5B18B32CB31468F4B70180E290E04B
S11313403C870E940B0AB3943C85F5CFB31410F488
S11313503B1801C0312C34FF12C0B70180E390E088
S11313603C870E940B0A3C8532FF17C031FD03C045
S113137088E790E002C088E590E0B7010CC0832FB5
S1131380867859F031FF02C08BE201C080E237FD5C
S11313908DE2B70190E00E940B0AA51438F4B7015E
S11313A080E390E00E940B0A5A94F7CFAA94F401C8
S11313B0EA0DF11D8081B70190E00E940B0AA11093
S11313C0F5CF332009F451CEB70180E290E00E94BA
S11313D00B0A3A94F6CFF7018681978102C08FEF0A
S11313E09FEF2C96E2E10C94BD0AFC01059061503C
S11313F070400110D8F7809590958E0F9F1F089527
S1131400FC016150704001900110D8F780959095CF
S11314108E0F9F1F08950F931F93CF93DF93FB01AC
S1131420238121FD03C08FEF9FEF28C022FF16C048
S113143046815781248135814217530744F4A081A2
S1131440B1819D012F5F3F4F318320838C9326818F
S113145037812F5F3F4F3783268310C0EB01092F5D
S1131460182F0084F185E02D0995892BE1F68E81F2
S11314709F8101969F838E83812F902FDF91CF913F
S11314801F910F910895FA01AA27283051F12031B4
S113149081F1E8946F936E7F6E5F7F4F8F4F9F4F04
S11314A0AF4FB1E03ED0B4E03CD0670F781F891F46
S11314B09A1FA11D680F791F8A1F911DA11D6A0F14
S11314C0711D811D911DA11D20D009F468943F91C7
S11314D02AE0269F11243019305D3193DEF6CF01C6
S11314E00895462F4770405D4193B3E00FD0C9F78C
S11314F0F6CF462F4F70405D4A3318F0495D31FDF9
S11315004052419302D0A9F7EACFB4E0A69597954B
S1131510879577956795BA95C9F700976105710521
S113152008959B01AC010A2E06945795479537956B
S11315302795BA95C9F7620F731F841F951FA01DC5
S113154008952F923F924F925F926F927F928F9263
S11315509F92AF92BF92CF92DF92EF92FF920F933E
S11315601F93CF93DF93CDB7DEB7CA1BDB0B0FB648
S1131570F894DEBF0FBECDBF09942A883988488805
S11315805F846E847D848C849B84AA84B984C8849B
S1131590DF80EE80FD800C811B81AA81B981CE0F92
S11315A0D11D0FB6F894DEBF0FBECDBFED01089577
S10715B0F894FFCFD9
S11315B400000001000000000000AD07000000006E
S11315C40002000000009D07000000004572726FD5
S11315D4723A2025730A0070665F6D6F756E74002D
S11315E470665F6F70656E0070665F72656164003B
S11315F425642C20256400524541444D452E5458FD
S105160454008C
S9030000FC
