:100000000C9434000C9451000C9451000C94510049
:100010000C9451000C9451000C9451000C9451001C
:100020000C9451000C9451000C9451000C9451000C
:100030000C9451000C9451000C9451000C945100FC
:100040000C9451000C9451000C9420010C9451001C
:100050000C9451000C9451000C9451000C945100DC
:100060000C9451000C94510011241FBECFEFD8E026
:10007000DEBFCDBF11E0A0E0B1E0ECEAFAE002C0E3
:1000800005900D92A634B107D9F721E0A6E4B1E0BE
:1000900001C01D92AB35B207E1F70E94C3000C947A
:1000A00054050C9400002C9898E0882314F42D9AA1
:1000B00001C02D98880F2C9A2C989150B1F7089573
:1000C000289A289A289808950E9453002D980E94F3
:1000D000600085ED8A95F1F7000008950E945300B5
:1000E0002D9A0E9460008AEE8A95F1F700C008956B
:1000F0000E946E0080E090E0089582E00E9464001B
:100100008FE39FE10197F1F700C00000089581E3BC
:1001100084B92FEF86E791E0215080409040E1F7CD
:1001200000C0000088E30E94640088E00E94640030
:1001300081E00E9464008FE39FE10197F1F700C026
:10014000000086E00E9464000E947D008CE00E9416
:1001500064000895813019F0823031F008958FE7FE
:10016000860F0E94640008958FEB860F0E94640042
:10017000089581E00E9464008FE39FE10197F1F709
:1001800000C0000008950E946B010E947C010E9443
:1001900087007894E1ECF0E08081806880838AE2D7
:1001A00091E09F938F930E944B0220E031E043E067
:1001B00050E061E070E087E391E00E9417020F9049
:1001C0000F900F2EFEE3EF2EF1E0FF2EF02D02E454
:1001D00011E0C0E0D1E0809148018823E1F36BE3B6
:1001E00071E089E491E00E94A50189E491E00E9418
:1001F000870180935301909354019F938F93FF92B3
:10020000EF920E944B020E94B90061E081E00E94DF
:10021000AA00809154018F93809153018F931F9373
:100220000F93DF93CF930E940502109248018DB780
:100230009EB70A960FB6F8949EBF0FBE8DBFCBCF68
:100240001F920F920FB60F9211242F933F934F934B
:100250005F936F937F938F939F93AF93BF93EF932E
:10026000FF9340915501509156016AE070E089E496
:1002700091E00E94D9018091C6008093480181E0FD
:1002800080934801FF91EF91BF91AF919F918F9122
:100290007F916F915F914F913F912F910F900FBE82
:1002A0000F901F901895CF93C82F8A3019F48DE0C6
:1002B0000E945301E0ECF0E0908195FFFDCFC093E8
:1002C000C600CF910895E0ECF0E080818823ECF740
:1002D0008091C60008951092C50087E68093C400FF
:1002E000E0ECF0E080818D7F808386E08093C20027
:1002F00088E18093C1000895E5E5F1E08CE191E0AB
:10030000938382838EE091E0918380830895FC0142
:1003100088279927E89421912032E9F3293010F0B9
:100320002E30C8F32B3241F02D3239F4689404C0DA
:100330000E94D101820F911D219120532A30C0F3D8
:100340001EF4909581959F4F089546E451E00E94D8
:10035000AA010895FA01A191B081009719F41097AC
:10036000E1F0CD01DC01CD010D90002011F4C001C0
:1003700013C0FB012191222319F02015D9F7F3CFE7
:10038000FB012191201519F41E92119606C022231B
:10039000C1F70D900020A1F7D001FA01A193B0831D
:1003A00008957AE0979F902D879F802D910D1124BD
:1003B0000895A0E0B0E0EFEDF1E00C942705FA011C
:1003C000238120FD03C080E090E01AC016161706B6
:1003D000D4F77A018C01EB016C01C130D10569F0D1
:1003E000C7010E9449048F3FFFEF9F0761F3F601A9
:1003F00081936F0121970A9781F7F6011082C80156
:10040000CDB7DEB7E8E00C944305A0E0B0E0EBE048
:10041000F2E00C942D05AE01475F5F4F6F81788548
:100420008D819E810E946102E2E00C944905A0E06A
:10043000B0E0EDE1F2E00C9423055B014A017901A3
:10044000D90113962C9121FF1DC0C0E0D0E0C81542
:10045000D905D9F08C016C01CA0CDB1CC8010C1544
:100460001D0571F00F5F1F4FD7011896ED91FC919C
:100470001997B701DC018C910995892B79F305C097
:100480002196E5CF80E090E001C0CE01CDB7DEB788
:10049000ECE00C943F05A0E0B0E0E1E5F2E00C9464
:1004A0002D05AE014B5F5F4FFA0161917191AF0174
:1004B00080915701909158010E946102E2E00C94F2
:1004C0004905ACE0B0E0E7E6F2E00C941D057C01E4
:1004D0006B018A01FC0117821682838181FFBDC1F5
:1004E000CE0101964C01F7019381F60193FD8591B0
:1004F00093FF81916F01882309F4ABC1853239F4F0
:1005000093FD859193FF81916F01853229F4B701A5
:1005100090E00E948704E7CF512C312C20E020325C
:10052000A0F48B3269F030F4803259F0833269F4F0
:1005300020612CC08D3239F0803339F4216026C01F
:100540002260246023C0286021C027FD27C030ED31
:10055000380F3A3078F426FF06C0FAE05F9E300D7F
:100560001124532E13C08AE0389E300D1124332EEF
:1005700020620CC08E3221F426FD6BC1206406C0BF
:100580008C3611F4206802C0883641F4F60193FDE0
:10059000859193FF81916F018111C1CF982F9F7D2C
:1005A0009554933028F40C5F1F4FFFE3F9830DC07F
:1005B000833631F0833771F0833509F05BC022C098
:1005C000F801808189830E5F1F4F44244394512C8E
:1005D000540115C03801F2E06F0E711CF801A080C3
:1005E000B18026FF03C0652D70E002C06FEF7FEF82
:1005F000C5012C870E943E042C0183012C852F7796
:10060000222E17C03801F2E06F0E711CF801A08095
:10061000B18026FF03C0652D70E002C06FEF7FEF51
:10062000C5012C870E9433042C012C852068222EC2
:10063000830123FC1BC0832D90E048165906B0F4BB
:10064000B70180E290E00E9487043A94F4CFF5016C
:1006500027FC859127FE81915F01B70190E00E9400
:10066000870431103A94F1E04F1A510841145104B3
:1006700071F7E5C0843611F0893639F5F80127FFA6
:1006800007C060817181828193810C5F1F4F08C018
:1006900060817181072E000C880B990B0E5F1F4F34
:1006A0002F76722E97FF09C0909580957095619571
:1006B0007F4F8F4F9F4F2068722E2AE030E0A401B9
:1006C0000E94BF04A82EA81844C0853729F42F7EA5
:1006D000B22E2AE030E025C0F22FF97FBF2E8F36F0
:1006E000C1F018F4883579F0B4C0803719F0883734
:1006F00021F0AFC02F2F2061B22EB4FE0DC08B2D84
:100700008460B82E09C024FF0AC09F2F9660B92EBE
:1007100006C028E030E005C020E130E002C020E162
:1007200032E0F801B7FE07C0608171818281938158
:100730000C5F1F4F06C06081718180E090E00E5F0A
:100740001F4FA4010E94BF04A82EA818FB2DFF77FD
:100750007F2E76FE0BC0372D3E7FA51450F474FE1D
:100760000AC072FC08C0372D3E7E05C0BA2C372D5A
:1007700003C0BA2C01C0B52C34FF0DC0FE01EA0D38
:10078000F11D8081803311F4397E09C032FF06C02B
:10079000B394B39404C0832F867809F0B39433FDE7
:1007A00013C030FF06C05A2CB31418F4530C5B1856
:1007B000B32CB31468F4B70180E290E03C870E9448
:1007C0008704B3943C85F5CFB31410F43B1801C0F3
:1007D000312C34FF12C0B70180E390E03C870E94C7
:1007E00087043C8532FF17C031FD03C088E790E0E5
:1007F00002C088E590E0B7010CC0832F867859F0DD
:1008000031FF02C08BE201C080E237FD8DE2B7010B
:1008100090E00E948704A51438F4B70180E390E0CB
:100820000E9487045A94F7CFAA94F401EA0DF11DAF
:100830008081B70190E00E948704A110F5CF33209A
:1008400009F451CEB70180E290E00E9487043A9407
:10085000F6CFF7018681978102C08FEF9FEF2C962C
:10086000E2E10C943905FC010590615070400110E3
:10087000D8F7809590958E0F9F1F0895FC016150C9
:10088000704001900110D8F7809590958E0F9F1FB2
:100890000895CF93DF93EC012B8120FF33C026FF17
:1008A0000AC02F7B2B838E819F8101969F838E832D
:1008B0008A8190E029C022FF0FC0E881F981808100
:1008C000082E000C990B009719F420622B831AC094
:1008D0003196F983E8830EC0EA85FB85099597FF79
:1008E00009C02B81019611F080E201C080E1822BCA
:1008F0008B8308C02E813F812F5F3F4F3F832E8324
:10090000992702C08FEF9FEFDF91CF9108950F934A
:100910001F93CF93DF93FB01238121FD03C08FEF52
:100920009FEF28C022FF16C0468157812481358160
:100930004217530744F4A081B1819D012F5F3F4FBF
:10094000318320838C93268137812F5F3F4F3783FC
:10095000268310C0EB01092F182F0084F185E02DAC
:100960000995892BE1F68E819F8101969F838E8365
:10097000812F902FDF91CF911F910F910895FA0150
:10098000AA27283051F1203181F1E8946F936E7FCE
:100990006E5F7F4F8F4F9F4FAF4FB1E03ED0B4E0BF
:1009A0003CD0670F781F891F9A1FA11D680F791F00
:1009B0008A1F911DA11D6A0F711D811D911DA11D11
:1009C00020D009F468943F912AE0269F1124301921
:1009D000305D3193DEF6CF010895462F4770405DBC
:1009E0004193B3E00FD0C9F7F6CF462F4F70405D6B
:1009F0004A3318F0495D31FD4052419302D0A9F7C6
:100A0000EACFB4E0A6959795879577956795BA95BF
:100A1000C9F700976105710508959B01AC010A2E85
:100A200006945795479537952795BA95C9F7620F5C
:100A3000731F841F951FA01D08952F923F924F9200
:100A40005F926F927F928F929F92AF92BF92CF925E
:100A5000DF92EF92FF920F931F93CF93DF93CDB767
:100A6000DEB7CA1BDB0B0FB6F894DEBF0FBECDBFDF
:100A700009942A88398848885F846E847D848C84B0
:100A80009B84AA84B984C884DF80EE80FD800C81B9
:100A90001B81AA81B981CE0FD11D0FB6F894DEBF9C
:0C0AA0000FBECDBFED010895F894FFCF0C
:100AAC0000000002000000007800000000000000C0
:100ABC0000010000000000006301000000000002C3
:100ACC000000000053010000000048656C6C6F20B2
:100ADC00776F726C642100537570000A0D002564E9
:060AEC000A002564000071
:00000001FF
