:100000000C9434000C9451000C9451000C94510049
:100010000C9451000C9451000C9451000C9451001C
:100020000C9451000C9451000C9451000C9451000C
:100030000C9451000C9451000C9451000C945100FC
:100040000C9451000C9451000C9414010C94510028
:100050000C9451000C9451000C9451000C945100DC
:100060000C9451000C94510011241FBECFEFD8E026
:10007000DEBFCDBF11E0A0E0B1E0ECE5F9E002C0E9
:1000800005900D92AE33B107D9F721E0AEE3B1E0B0
:1000900001C01D92AB35B207E1F70E94C3000C947A
:1000A000AC040C9400002C9898E0882314F42D9A4A
:1000B00001C02D98880F2C9A2C989150B1F7089573
:1000C000289A289A289808950E9453002D980E94F3
:1000D000600085ED8A95F1F7000008950E945300B5
:1000E0002D9A0E9460008AEE8A95F1F700C008956B
:1000F0000E946E0080E090E0089582E00E9464001B
:100100008FE39FE10197F1F700C00000089581E3BC
:1001100084B92FEF86E791E0215080409040E1F7CD
:1001200000C0000088E30E94640088E00E94640030
:1001300081E00E9464008FE39FE10197F1F700C026
:10014000000086E00E9464000E947D008CE00E9416
:1001500064000895813019F0823031F008958FE7FE
:10016000860F0E94640008958FEB860F0E94640042
:10017000089581E00E9464008FE39FE10197F1F709
:1001800000C0000008950E947F010E9490010E941B
:1001900087007894E1ECF0E08081806880838AE2D7
:1001A00091E09F938F930E94E10120E031E043E0D2
:1001B00050E061E070E087E391E00E94AD010F90B4
:1001C0000F900F2EF1E4EF2EF1E0FF2EF02DCBE398
:1001D000D1E000E011E0809140018823E1F3F701D4
:1001E000808191819F938F93DF93CF930E94E10150
:1001F0000E94B90061E081E00E94AA00F7018081BD
:1002000091819F938F93DF93CF931F930F930E94BE
:100210009B0110924001EDB7FEB73A960FB6F894E5
:10022000FEBF0FBEEDBFD7CF1F920F920FB60F923A
:1002300011242F933F938F939F93EF93FF93E0911C
:100240003E01F0913F018091C60090E0EE0FFF1F4C
:10025000EF5BFE4F9183808380913E0190913F013F
:100260009C012F5F3F4F30933F0120933E01880F49
:10027000991FFC01EF5BFE4F808191810D97C9F4BE
:1002800081E08093400180913E0190913F019C016B
:100290002150310930933F0120933E01880F991F6F
:1002A000FC01EF5BFE4F1182108210923F01109211
:1002B0003E0181E080934001FF91EF919F918F91EA
:1002C0003F912F910F900FBE0F901F901895CF93D5
:1002D000C82F8A3019F48DE00E946701E0ECF0E04D
:1002E000908195FFFDCFC093C600CF910895E0ECBB
:1002F000F0E080818823ECF78091C6000895109289
:10030000C50087E68093C400E0ECF0E080818D7F3B
:10031000808386E08093C20088E18093C1000895C5
:10032000E5E5F1E08CE191E0938382838EE091E05A
:10033000918380830895A0E0B0E0E1EAF1E00C94BD
:100340008504AE01475F5F4F6F8178858D819E8107
:100350000E94F701E2E00C94A104A0E0B0E0E3EB1E
:10036000F1E00C947B045B014A017901D9011396F9
:100370002C9121FF1DC0C0E0D0E0C815D905D9F0EF
:100380008C016C01CA0CDB1CC8010C151D0571F039
:100390000F5F1F4FD7011896ED91FC911997B70188
:1003A000DC018C910995892B79F305C02196E5CF65
:1003B00080E090E001C0CE01CDB7DEB7ECE00C9458
:1003C0009704A0E0B0E0E7EEF1E00C948504AE0104
:1003D0004B5F5F4FFA0161917191AF0180915701BD
:1003E000909158010E94F701E2E00C94A104ACE066
:1003F000B0E0EDEFF1E00C9475047C016B018A0133
:10040000FC0117821682838181FFBDC1CE01019656
:100410004C01F7019381F60193FD859193FF819142
:100420006F01882309F4ABC1853239F493FD8591BE
:1004300093FF81916F01853229F4B70190E00E940A
:10044000DF03E7CF512C312C20E02032A0F48B3297
:1004500069F030F4803259F0833269F420612CC0A5
:100460008D3239F0803339F4216026C02260246057
:1004700023C0286021C027FD27C030ED380F3A3057
:1004800078F426FF06C0FAE05F9E300D1124532E4B
:1004900013C08AE0389E300D1124332E20620CC028
:1004A0008E3221F426FD6BC1206406C08C3611F417
:1004B000206802C0883641F4F60193FD859193FFD0
:1004C00081916F018111C1CF982F9F7D95549330F9
:1004D00028F40C5F1F4FFFE3F9830DC0833631F022
:1004E000833771F0833509F05BC022C0F801808149
:1004F00089830E5F1F4F44244394512C540115C02F
:100500003801F2E06F0E711CF801A080B18026FF67
:1005100003C0652D70E002C06FEF7FEFC5012C872F
:100520000E94D4032C0183012C852F77222E17C023
:100530003801F2E06F0E711CF801A080B18026FF37
:1005400003C0652D70E002C06FEF7FEFC5012C87FF
:100550000E94C9032C012C852068222E830123FCD4
:100560001BC0832D90E048165906B0F4B70180E215
:1005700090E00E94DF033A94F4CFF50127FC8591C7
:1005800027FE81915F01B70190E00E94DF033110E7
:100590003A94F1E04F1A51084114510471F7E5C043
:1005A000843611F0893639F5F80127FF07C06081DC
:1005B0007181828193810C5F1F4F08C060817181BE
:1005C000072E000C880B990B0E5F1F4F2F76722E93
:1005D00097FF09C090958095709561957F4F8F4FDB
:1005E0009F4F2068722E2AE030E0A4010E94170479
:1005F000A82EA81844C0853729F42F7EB22E2AE0F1
:1006000030E025C0F22FF97FBF2E8F36C1F018F4ED
:10061000883579F0B4C0803719F0883721F0AFC041
:100620002F2F2061B22EB4FE0DC08B2D8460B82E0A
:1006300009C024FF0AC09F2F9660B92E06C028E08B
:1006400030E005C020E130E002C020E132E0F801F6
:10065000B7FE07C060817181828193810C5F1F4F5B
:1006600006C06081718180E090E00E5F1F4FA401A1
:100670000E941704A82EA818FB2DFF777F2E76FE68
:100680000BC0372D3E7FA51450F474FE0AC072FCD7
:1006900008C0372D3E7E05C0BA2C372D03C0BA2CBA
:1006A00001C0B52C34FF0DC0FE01EA0DF11D8081A3
:1006B000803311F4397E09C032FF06C0B394B3947D
:1006C00004C0832F867809F0B39433FD13C030FF44
:1006D00006C05A2CB31418F4530C5B18B32CB31483
:1006E00068F4B70180E290E03C870E94DF03B39496
:1006F0003C85F5CFB31410F43B1801C0312C34FF06
:1007000012C0B70180E390E03C870E94DF033C8584
:1007100032FF17C031FD03C088E790E002C088E5D2
:1007200090E0B7010CC0832F867859F031FF02C0EA
:100730008BE201C080E237FD8DE2B70190E00E94BC
:10074000DF03A51438F4B70180E390E00E94DF03D3
:100750005A94F7CFAA94F401EA0DF11D8081B701F4
:1007600090E00E94DF03A110F5CF332009F451CEB1
:10077000B70180E290E00E94DF033A94F6CFF701E0
:100780008681978102C08FEF9FEF2C96E2E10C9457
:100790009104FC010590615070400110D8F78095DC
:1007A00090958E0F9F1F0895FC016150704001903D
:1007B0000110D8F7809590958E0F9F1F08950F9385
:1007C0001F93CF93DF93FB01238121FD03C08FEFA4
:1007D0009FEF28C022FF16C04681578124813581B2
:1007E0004217530744F4A081B1819D012F5F3F4F11
:1007F000318320838C93268137812F5F3F4F37834E
:10080000268310C0EB01092F182F0084F185E02DFD
:100810000995892BE1F68E819F8101969F838E83B6
:10082000812F902FDF91CF911F910F910895FA01A1
:10083000AA27283051F1203181F1E8946F936E7F1F
:100840006E5F7F4F8F4F9F4FAF4FB1E03ED0B4E010
:100850003CD0670F781F891F9A1FA11D680F791F51
:100860008A1F911DA11D6A0F711D811D911DA11D62
:1008700020D009F468943F912AE0269F1124301972
:10088000305D3193DEF6CF010895462F4770405D0D
:100890004193B3E00FD0C9F7F6CF462F4F70405DBC
:1008A0004A3318F0495D31FD4052419302D0A9F717
:1008B000EACFB4E0A6959795879577956795BA9511
:1008C000C9F700976105710508959B01AC010A2ED7
:1008D00006945795479537952795BA95C9F7620FAE
:1008E000731F841F951FA01D08952F923F924F9252
:1008F0005F926F927F928F929F92AF92BF92CF92B0
:10090000DF92EF92FF920F931F93CF93DF93CDB7B8
:10091000DEB7CA1BDB0B0FB6F894DEBF0FBECDBF30
:1009200009942A88398848885F846E847D848C8401
:100930009B84AA84B984C884DF80EE80FD800C810A
:100940001B81AA81B981CE0FD11D0FB6F894DEBFED
:0C0950000FBECDBFED010895F894FFCF5D
:10095C000000000200000000780000000000000011
:10096C000001000000000000770100000000000200
:10097C000000000067010000000048656C6C6F20EF
:0E098C00776F726C6421005375700025640053
:00000001FF
