S01D00004D756C7469706C65556C747261736F6E69635473742E737265635C
S11300000C94B5000C94D2000C94D2000C94D20041
S11300100C94D2000C94DE010C94D2000C94D20007
S11300200C94D2000C94D2000C94D2000C94D20004
S11300300C94D2000C94D2000C94D2000C94D200F4
S11300400C9431020C94D2000C94D2000C94D20083
S11300500C94D2000C94D2000C94D2000C94D200D4
S11300600C94D2000C94D2006E616E00696E66002E
S113007000407A10F35A00A0724E18090010A5D45B
S1130080E80000E87648170000E40B54020000CAB8
S11300909A3B000000E1F5050000809698000000FE
S11300A040420F000000A08601000000102700005D
S11300B00000E803000000006400000000000A00E3
S11300C0000000000100000000002C76D888DC67E6
S11300D04F0823DFC1DFAE59E1B1B796E5E3E4533E
S11300E0C63AE651997696E8E6C28426EB898C9B5B
S11300F062ED407C6FFCEFBC9C9F40F2BAA56FA5FB
S1130100F490055A2AF75C936B6CF9676DC11BFC7C
S1130110E0E40D47FEF520E6B500D0ED902E030097
S1130120943577050080841E080000204E0A0000E4
S113013000C80C333333330F986E12831141EF8DA3
S11301402114893BE65516CFFEE6DB18D1844B38E3
S11301501BF77C1D901DA4BBE424203284725E2214
S11301608100C9F124ECA1E53D2711241FBECFEF86
S1130170D8E0DEBFCDBF11E0A0E0B1E0E8EFF2E1EE
S113018002C005900D92A233B107D9F721E0A2E392
S1130190B1E001C01D92A034B207E1F70E946901E9
S11301A00C947A090C940000209A28985298539839
S11301B00895E8E6F0E08081846080830895E0910A
S11301C03201F0913301E050FF4F3081EDE6F0E071
S11301D0208181E090E002C0880F991F3A95E2F7F0
S11301E0822B80830895E0913201F0913301E05035
S11301F0FF4F3081EDE6F0E0208181E090E002C025
S1130200880F991F3A95E2F7809590958223808311
S113021008950E94DF00289878942AE62A95F1F739
S113022000C0289A80E48A95F1F7289881E090E04C
S1130230909339018093380180913801909139016C
S1130240892BD1F7F8940E94F300809134019091A6
S11302503501A0913601B091370188379D4BA540F7
S1130260B10560F48091340190913501A09136017B
S1130270B0913701892B8A2B8B2B61F487E79DEB97
S1130280A5E0B0E08093340190933501A09336014A
S1130290B09337016091340170913501809136013A
S11302A09091370110923401109235011092360169
S11302B0109237010E94320320E034E244E75BE409
S11302C00E94C00220E03AEE44E856E40E94C003D3
S11302D00895CF93DF93CDB7DEB728970FB6F89480
S11302E0DEBF0FBECDBF0E94A4020E94B5020E94D1
S11302F0D4000E94D900FE01319688E0DF011D92EE
S11303008A95E9F70F2EF0E2EF2EF1E0FF2EF02DA3
S113031000913201109133010E940901000F111F55
S1130320000F111FE1E0F0E0EC0FFD1FE00FF11FE3
S11303306083718382839383E0913201F09133016E
S11303408091320190913301EE0FFF1FEE0FFF1FDA
S113035021E030E02C0F3D1FE20FF31F23812F9388
S113036022812F9321812F9320812F939F938F9309
S1130370FF92EF920E94060980913201909133011D
S113038001969093330180933201809132019091D0
S113039033010FB6F894DEBF0FBECDBF029724F031
S11303A01092330110923201BFEF23ED30E3B150CC
S11303B020403040E1F700C00000AACF1F920F9206
S11303C00FB60F9211242F938F939F93AF93BF93E4
S11303D0EF93FF9389B1E0913201F0913301EE5F25
S11303E0FE4F208190E002C0959587952A95E2F70B
S11303F080FF09C0EEE6F0E080818160808385B5EE
S1130400816085BD22C085B58E7F85BDEEE6F0E0B6
S113041080818E7F808326B580913401909135014F
S1130420A0913601B0913701820F911DA11DB11D1C
S11304308093340190933501A0933601B093370132
S113044016BC1092390110923801FF91EF91BF91BF
S1130450AF919F918F912F910F900FBE0F901F908E
S113046018951F920F920FB60F9211242F938F930A
S11304709F93AF93BF93EF93FF9380913401909137
S11304803501A0913601B091370181509F4FAF4F94
S1130490BF4F8093340190933501A0933601B093FC
S11304A037018091340190913501A0913601B091CA
S11304B0370188379D4BA540B10510F110923901E1
S11304C01092380185B58E7F85BDEEE6F0E080811F
S11304D08E7F808326B58091340190913501A0915F
S11304E03601B0913701820F911DA11DB11D80937A
S11304F0340190933501A0933601B093370116BCB3
S1130500FF91EF91BF91AF919F918F912F910F9098
S11305100FBE0F901F901895CF93C82F8A3019F4EF
S11305208DE00E948C02E0ECF0E0908195FFFDCF1D
S1130530C093C600CF910895E0ECF0E08081882359
S1130540ECF78091C60008951092C50087E6809369
S1130550C400E0ECF0E080818D7F808386E08093AE
S1130560C20088E18093C1000895EAE3F1E082E1EA
S113057091E09383828384E091E091838083089562
S11305800E94D4020C9486030E947F0358F00E94B8
S1130590780340F029F45F3F29F00C946F03511164
S11305A00C94BA030C9475030E94970368F399237F
S11305B0B1F3552391F3951B550BBB27AA2762175B
S11305C07307840738F09F5F5F4F220F331F441F68
S11305D0AA1FA9F335D00E2E3AF0E0E832D091509C
S11305E05040E695001CCAF72BD0FE2F29D0660F89
S11305F0771F881FBB1F261737074807AB07B0E8CC
S113060009F0BB0B802DBF01FF2793585F4F3AF0D1
S11306109E3F510578F00C946F030C94BA035F3F2E
S1130620E4F3983ED4F3869577956795B795F79557
S11306309F5FC9F7880F911D9695879597F908953F
S1130640E1E0660F771F881FBB1F621773078407DB
S1130650BA0720F0621B730B840BBA0BEE1F88F7EA
S1130660E0950895E89409C097FB3EF49095809531
S1130670709561957F4F8F4F9F4F9923A9F0F92F64
S113068096E9BB279395F695879577956795B795E2
S1130690F111F8CFFAF4BB0F11F460FF1BC06F5FC8
S11306A07F4F8F4F9F4F16C0882311F096E911C0DA
S11306B0772321F09EE8872F762F05C0662371F0FB
S11306C096E8862F70E060E02AF09A95660F771F0F
S11306D0881FDAF7880F9695879597F9089597F903
S11306E09F6780E870E060E008959FEF80EC0895D4
S11306F000240A94161617061806090608950024FD
S11307000A9412161306140605060895092E039476
S1130710000C11F4882352F0BB0F40F4BF2B11F4EA
S113072060FF04C06F5F7F4F8F4F9F4F089557FD49
S11307309058440F551F59F05F3F71F04795880F4B
S113074097FB991F61F09F3F79F0879508951216E2
S113075013061406551FF2CF4695F1DF08C016168E
S113076017061806991FF1CF86957105610508943F
S11307700895E894BB2766277727CB0197F9089556
S11307800E94D3030C9486030E94780338F00E94DD
S11307907F0320F0952311F00C946F030C947503E0
S11307A011240C94BA030E94970370F3959FC1F32C
S11307B0950F50E0551F629FF001729FBB27F00D0B
S11307C0B11D639FAA27F00DB11DAA1F649F662760
S11307D0B00DA11D661F829F2227B00DA11D621FAF
S11307E0739FB00DA11D621F839FA00D611D221F69
S11307F0749F3327A00D611D231F849F600D211D4D
S1130800822F762F6A2F11249F5750409AF0F1F0CF
S113081088234AF0EE0FFF1FBB1F661F771F881F38
S113082091505040A9F79E3F510580F00C946F03FE
S11308300C94BA035F3FE4F3983ED4F3869577951E
S11308406795B795F795E7959F5FC1F7FE2B880FDE
S1130850911D9695879597F90895A3E1B0E0E3E398
S1130860F4E00C94A9076C014B012A01FC011782E6
S11308701682838181FF43C3AE014F5F5F4F3A010C
S1130880F6019381F40193FD859193FF81914F01CA
S1130890882309F430C3853239F493FD859193FF9D
S11308A081914F01853239F4B60190E00E94CE085F
S11308B052012501E5CF10E0F12C20E02032A0F414
S11308C08B3269F030F4803259F0833269F420615C
S11308D02CC08D3239F0803339F4216026C0226077
S11308E0246023C0286021C027FD27C030ED380FC5
S11308F03A3078F426FF06C0FAE01F9F300D112429
S1130900132F13C04AE0F49E300D1124F32E2062FD
S11309100CC08E3221F426FDEEC2206406C08C3653
S113092011F4206802C0883641F4F40193FD8591E6
S113093093FF81914F018111C1CF9BEB980F9330AD
S113094018F42061805E06C09BE9980F933008F08C
S113095071C12F7E26FF16E02F73322E853619F4CF
S11309602064322E08C0863621F4F22FF0683F2E20
S113097002C01111115037FE07C01C3350F4EE248D
S1130980E394E10E27E00BC0183038F027E017E0BD
S113099005C027E04CE3E42E02C0212FE12C5201D4
S11309A044E0A40EB11CF2016081718182819381C3
S11309B00E2DA3010E94E0072C01098100FF02C053
S11309C003FF07C031FC08C032FE09C030E2232E09
S11309D007C02DE2222E04C09BE2292E01C0212C47
S11309E0802F8C7019F0211068C2A8C237FE0FC086
S11309F0E40C04FF04C08A81813309F4EA941E14D0
S1130A0074F5F8E0FE1578F588E0E82E2CC036FC85
S1130A102AC0812F90E0841595059CF02CEF421696
S1130A202FEF520674F0432D4068342E0AC0E2E0E2
S1130A30F0E0EC0FFD1FE10FF11D8081803319F40C
S1130A4011501111F4CF37FE0EC0EE24E394E10EE1
S1130A50812F90E0481659062CF4141904C0EE2492
S1130A60E39401C010E037FE06C01414150434F4F6
S1130A70C201019605C085E090E002C081E090E0EB
S1130A8021100196112331F0212F30E02F5F3F4FC9
S1130A90820F931F2F2D30E08217930714F4F81A56
S1130AA001C0F12C832D897049F4FF2039F0B6017F
S1130AB080E290E00E94CE08FA94F7CF222029F039
S1130AC0B601822D90E00E94CE0833FC09C0FF20BD
S1130AD039F0B60180E390E00E94CE08FA94F7CF93
S1130AE037FE5AC0942D852D57FE02C090E080E059
S1130AF0292E382E20E030E0A2014E1951095D87DD
S1130B004C87A201421953095F874E87612F70E019
S1130B1044275527461B570B598B488B5FEF2516E7
S1130B20350649F4B6018EE290E02A8B3B8B0E9495
S1130B30CE083B892A89421453046CF04C855D85A8
S1130B404215530544F4EE85FF85E20FF31FE60DCD
S1130B50F71D818101C080E351E0251A31082F5F20
S1130B603F4F48895989241635064CF0B60190E068
S1130B702A8B3B8B0E94CE082A893B89CFCF241431
S1130B80350439F49A81963318F4953311F404FF3B
S1130B9081E3B60190E04BC08A81813309F00F7E76
S1130BA0B60190E00E94CE08111105C034FC18C0B3
S1130BB085E690E017C0B6018EE290E00E94CE0870
S1130BC082E0EE24E394E80EF301E80FF11D808146
S1130BD0B60190E00E94CE0811508E2D91F7E6CF19
S1130BE085E490E0B6010E94CE0857FC05C041148C
S1130BF0510439F404FF05C05194419451088DE225
S1130C0001C08BE2B60190E00E94CE0880E39AE036
S1130C10491651042CF08F5F5AE0451A5108F7CF5A
S1130C20B60190E00E94CE08B601C201C0960E94AF
S1130C30CE0857C1833631F0833779F0833509F014
S1130C4058C021C05201E2E0AE0EB11CF201808115
S1130C50898301E010E0230114C05201F2E0AF0ED9
S1130C60B11CF2014080518026FF03C0612F70E067
S1130C7002C06FEF7FEFC2012A8B0E94C3088C0170
S1130C802A892F7715C05201F2E0AF0EB11CF20190
S1130C904080518026FF03C0612F70E002C06FEFD7
S1130CA07FEFC2012A8B0E94B8088C012A89206830
S1130CB0322E23FD1AC08F2D90E008171907A8F4CF
S1130CC0B60180E290E00E94CE08FA94F4CFF201DB
S1130CD037FC859137FE81912F01B60190E00E9487
S1130CE0CE08F110FA94015011090115110579F794
S1130CF0F8C0843611F0893659F5520127FF09C02E
S1130D00F4E0AF0EB11CF2016081718182819381A4
S1130D100AC0F2E0AF0EB11CF20160817181072EAE
S1130D20000C880B990B2F76322E97FF09C09095F3
S1130D308095709561957F4F8F4F9F4F2068322E1D
S1130D402AE030E0A3010E941C09E82EE6183FC007
S1130D50022F853721F40F7E2AE030E01DC0097F81
S1130D608F3691F018F4883559F0C5C0803719F0E2
S1130D70883711F0C0C0006104FF09C0046007C0D7
S1130D8024FF08C0066006C028E030E005C020E16A
S1130D9030E002C020E132E0520107FF09C0F4E074
S1130DA0AF0EB11CF201608171818281938108C010
S1130DB0F2E0AF0EB11CF2016081718180E090E03D
S1130DC0A3010E941C09E82EE6180F77302E36FE88
S1130DD00BC0332D3E7FE11650F434FE0AC032FCC2
S1130DE008C0332D3E7E05C00E2D332D03C00E2DBD
S1130DF001C0012F34FF0CC0FE01EE0DF11D8081F6
S1130E00803311F4397E08C032FF05C00E5F04C080
S1130E10832F867809F00F5F33FD13C030FF06C0BF
S1130E201E2D0F1518F41F0D101B0F2D0F1568F430
S1130E30B60180E290E03B8B0E94CE080F5F3B89B5
S1130E40F5CF0F1510F4F01A01C0F12C34FF12C0C5
S1130E50B60180E390E03B8B0E94CE083B8932FFD1
S1130E6017C031FD03C088E790E002C088E590E038
S1130E70B6010CC0832F867859F031FF02C08BE293
S1130E8001C080E237FD8DE2B60190E00E94CE08F9
S1130E90E11638F4B60180E390E00E94CE081150C8
S1130EA0F7CFEA94F301EE0DF11D8081B60190E0D5
S1130EB00E94CE08E110F5CF14C0F4E0FF1558F5F8
S1130EC084E0F81A33FE1EC0211026C003FF2AC096
S1130ED008E610E0F32DF0713F2EF80184918111A2
S1130EE024C0FF2009F4E5CCB60180E290E00E9422
S1130EF0CE08FA94F6CFF6018681978126C08FEF4B
S1130F009FEF23C0B60180E290E00E94CE08FA94DD
S1130F10F110F8CFD9CFF12CB601822D90E00E94C8
S1130F20CE08D4CF0CE610E0D5CF31108052B601F4
S1130F3090E00E94CE080F5F1F4FCFCF23E02F1504
S1130F4010F483E0BECFF12CC1CF6396E2E10C94A0
S1130F50C5072F923F924F925F926F927F928F922A
S1130F609F92AF92BF92CF92DF92EF92FF920F9334
S1130F701F93CF93DF93CDB7DEB7CA1BDB0B0FB63E
S1130F80F894DEBF0FBECDBF09942A8839884888FB
S1130F905F846E847D848C849B84AA84B984C88491
S1130FA0DF80EE80FD800C811B81AA81B981CE0F88
S1130FB0D11D0FB6F894DEBF0FBECDBFED0108956D
S1130FC0283008F027E03327DA01990F311D87FD17
S1130FD0916000966105710539F432602E5F3D938E
S1130FE030E32A95E1F708959F3F30F0803871058A
S1130FF0610509F03C5F3C5F3D93913008F08068E7
S1131000911DDF93CF931F930F93FF92EF92192FAC
S1131010987F9695E92F96959695E90FFF27E653C5
S1131020FF4F99273327EE24FF24A701E7010590FA
S11310300894079428F4360FE71EF81E491F511D23
S1131040660F771F881F991F0694A1F705900794D0
S113105028F4E70EF81E491F561FC11D770F881F7D
S1131060991F661F0694A1F70590079428F4F80EBB
S1131070491F561FC71FD11D880F991F661F771F51
S11310800694A1F70590079420F4490F561FC71F33
S1131090D81F990F661F771F881F0694A9F784919C
S11310A01095177041F0D695C79557954795F794C5
S11310B0E7941A95C1F7E0E7F0E06894159015916C
S11310C035916591959105907FE27395E118F10A48
S11310D0430B560BC90BD009C0F7E10CF11E431F9B
S11310E0561FC91FD01D7EF4703311F48A95E6CFC4
S11310F0E894015030F0080F0AF40027021708F4AE
S1131100202F2395022F7A3328F079E37D932A95B3
S1131110E9F710C07D932A9589F60694979567950B
S1131120379517951794E118F10A430B560BC90B21
S1131130D00998F023957E9173957A3308F070E383
S11311407C932013B8F77E9170617D9330F0839582
S113115071E37D9370E32A95E1F71124EF90FF90FA
S11311600F911F91CF91DF91992787FD9095089555
S1131170FC010590615070400110D8F7809590955E
S11311808E0F9F1F0895FC01615070400190011063
S1131190D8F7809590958E0F9F1F08950F931F93F6
S11311A0CF93DF93FB01238121FD03C08FEF9FEFDA
S11311B028C022FF16C046815781248135814217F9
S11311C0530744F4A081B1819D012F5F3F4F3183C8
S11311D020838C93268137812F5F3F4F378326836B
S11311E010C0EB01092F182F0084F185E02D09951B
S11311F0892BE1F68E819F8101969F838E83812FB7
S1131200902FDF91CF911F910F910895A0E0B0E04E
S1131210ECE0F9E00C94B907AE014B5F5F4FFA01C3
S113122061917191AF0180913C0190913D010E94C7
S11312302D04E2E00C94D507FA01AA27283051F1D5
S1131240203181F1E8946F936E7F6E5F7F4F8F4FF3
S11312509F4FAF4FB1E03ED0B4E03CD0670F781F52
S1131260891F9A1FA11D680F791F8A1F911DA11D37
S11312706A0F711D811D911DA11D20D009F4689470
S11312803F912AE0269F11243019305D3193DEF618
S1131290CF010895462F4770405D4193B3E00FD0CE
S11312A0C9F7F6CF462F4F70405D4A3318F0495DB9
S11312B031FD4052419302D0A9F7EACFB4E0A6959C
S11312C09795879577956795BA95C9F700976105BE
S11312D0710508959B01AC010A2E06945795479514
S11312E037952795BA95C9F7620F731F841F951F09
S10B12F0A01D0895F894FFCF3E
S11312F802030203000000010000000000009C0239
S1131308000000000002000000008C020000000041
S113131853656E736F722025643A20252E32660A4F
S10513280000BF
S9030000FC
