S00F000053445F546573742E737265637F
S11300000C9434000C9451000C9451000C94510045
S11300100C9451000C9451000C9451000C94510018
S11300200C9451000C9451000C9451000C94510008
S11300300C9451000C9451000C9451000C945100F8
S11300400C9451000C9451000C9451000C945100E8
S11300500C9451000C9451000C9451000C945100D8
S11300600C9451000C94510011241FBECFEFD8E022
S1130070DEBFCDBF11E0A0E0B1E0E0E5F1E102C0F8
S113008005900D92A23EB107D9F722E0A2EEB1E0AD
S113009001C01D92A132B207E1F70E944C050C94F5
S11300A0A6080C9400008F929F92AF92BF92CF92B9
S11300B0DF92EF92FF920F931F93CF93DF936EEB38
S11300C071E080E090E00E94E904C0E002EE11E0FB
S11300D080E10E940605F8018481982F9D7F943069
S11300E039F08E3029F0CF5FC43091F78FEFAFC075
S11300F0C43009F4A9C0C2EED1E088859985AA85E7
S1130100BB85072E79E0880F991FAA1FBB1F7A951C
S1130110D1F7702D8093020290930302A0930402FE
S1130120B0930502BC01CD01655F7F4F8F4F9F4F98
S11301300E94E9048DE00E94060588819981811559
S1130140924009F083C02B8180E090E0922F990FB8
S1130150E2E0F2E080809180A280B380880E991E54
S1130160A11CB11C80829182A282B3822B853C8522
S1130170AD81B0E00E94C1056B017C010B2EB9E09A
S1130180CC0CDD1CEE1CFF1CBA95D1F7B02DC80CAD
S1130190D91CEA1CFB1C2E813F81C901A0E0B0E000
S11301A0880F991FAA1FBB1F880F991FAA1FBB1F67
S11301B0880F991FAA1FBB1F880F991FAA1FBB1F57
S11301C0880F991FAA1FBB1F8C0D9D1DAE1DBF1D3F
S11301D084839583A683B7834A814087A901440F0A
S11301E0551F42955295507F5427407F542760E015
S11301F070E04787508B618B728B4FEF5FEFBA01D2
S11302004387548765877687BF93AF939F938F9374
S1130210FF92EF92DF92CF92BF92AF929F928F9212
S113022080E091E09F938F930E94DB05C701B601A4
S11302300E94E9048DB79EB70E960FB6F8949EBF40
S11302400FBE8DBF80E003C08FEF01C08EEFDF9142
S1130250CF911F910F91FF90EF90DF90CF90BF90BF
S1130260AF909F908F900895CF92DF92EF92FF927C
S11302700F931F93CF93C82F809111029091120274
S1130280A0911302B0911402892B8A2B8B2B09F4B1
S1130290B7C080910D0290910E02A0910F02B0910F
S11302A01002892B8A2B8B2B09F064C002E012E028
S11302B0F80181859285A0E0B0E0880F991FAA1FFC
S11302C0BB1F40815181628173816C017D01C40E29
S11302D0D51EE61EF71EC701B6010E94E90482E09E
S11302E00E940605A091E201B091E301F801B287F2
S11302F0A1872085422F50E060E070E09A01AB01B5
S1130300012E19E0220F331F441F551F1A95D1F7F0
S1130310102D2387348745875687AF3FFFEFBF07EC
S113032051F41092110210921202109213021092C0
S1130330140280E066C012970E94D00502E012E029
S1130340F801C480D580E680F7806C0D7D1D8E1D7C
S11303509F1D0E94E904F80182858F9381858F9304
S113036083E391E09F938F930E94DB050F900F909E
S11303700F900F908091110290911202A09113029C
S1130380B09114024C2F50E060E070E084179507A0
S1130390A607B70708F4C82F80910D0290910E02AA
S11303A0A0910F02B09110024C2F50E060E070E079
S11303B084179507A607B70708F4C82F8C2F0E9447
S11303C00605082F10E020E030E0E2E0F2E0478587
S11303D0508961897289401B510B620B730B4787EB
S11303E0508B618B728B4385548565857685401B64
S11303F0510B620B730B438754876587768701C063
S113040080E0CF911F910F91FF90EF90DF90CF90FC
S113041008952F923F924F925F926F927F928F92A4
S11304209F92AF92BF92CF92DF92EF92FF920F937F
S11304301F93CF93DF937C018B011F936F93FF92E4
S11304408F9384E491E09F938F930E94DB050F9038
S11304500F900F900F900F900F900F2EF2EE8F2EA3
S1130460F1E09F2EF02D0F2EFAEEAF2EF1E0BF2E0D
S1130470F02D0F2EF1E66F2EF1E07F2EF02D0F2ED2
S1130480F3EE4F2EF1E05F2EF02D17018FEF281AB7
S1130490380AE70128960F2EF2E0CF2EF2E0DF2E85
S11304A0F02D80E20E943401803208F4A5C0F401EA
S11304B08081882371F0BF92AF929F928F927F9236
S11304C06F920E94DB050F900F900F900F900F908A
S11304D00F90F4019081F7018081981371C0D201CB
S11304E0F1019D91819198136BC0EC17FD07C9F739
S11304F085C0F4019285F8018281981361C0C2EE2F
S1130500D1E08B8D8F938A8D8F9389E791E09F93B0
S11305108F930E94DB05AA8DBB8DE2E0F2E0B287E7
S1130520A1872085422F50E060E070E09A01AB0182
S1130530012E19E0220F331F441F551F1A95D1F7BE
S1130540102D23873487458756870F900F900F907F
S11305500F9088818E3221F08091ED0184FF0DC0CF
S1130560CC24CA94DC2C7601C0921102D0921202DF
S1130570E0921302F092140210C0C090FE01D090D9
S1130580FF01E0900002F0900102C0921102D092AB
S11305901202E0921302F092140212970E94D00504
S11305A0009106021091070220910802309109027D
S11305B0600F711F821F931F0E94E90480E02CC00A
S11305C0F60187859089A189B289892B8A2B8B2B87
S11305D009F067CF1F930F93FF92EF9284E991E0A4
S11305E09F938F930E94DB050F900F900F900F90B5
S11305F00F900F908FEF10C08EEF0EC0F401908516
S1130600F80180819813DCCFF4019185F801818190
S1130610981709F46ECFD4CFDF91CF911F910F912A
S1130620FF90EF90DF90CF90BF90AF909F908F900E
S11306307F906F905F904F903F902F90089590938C
S1130640C5008093C40086E08093C20088E1809353
S1130650C1000895E0ECF0E0908195FFFDCF809318
S1130660C6000895CF93C82F82958F70282F30E04D
S11306702A30310524F4805D0E942A0303C0895C7A
S11306800E942A038C2F8F70282F2F7030E02A307D
S1130690310524F4805D0E942A0303C0895C0E9412
S11306A02A03CF9108950F931F93CF93FC01808168
S11306B0882359F08F01C0E00E942A03CF5FF8011C
S11306C0EC0FF11D80818111F7CFCF911F910F9114
S11306D00895229A84B1886284B92C9A83E58CBDEA
S11306E008958EBD0DB407FEFDCF8EB50895BF925B
S11306F0CF92DF92EF92FF920F931F93CF93DF93EA
S1130700CDB7DEB7A0970FB6F894DEBF0FBECDBF4E
S1130710182FE42ED52EC62EB72EF22E8EEA91E097
S11307200E945303812F0E9432032A98812F0E9432
S113073071038B2D0E9471038C2D0E9471038D2DEA
S11307400E9471038E2D0E9471038F2D0E947103EC
S1130750002331F1CE0101967C010150C02ED12C31
S11307609FEFC91AD90ACE0CDF1C87018FEF0E94B4
S11307707103F80181938F01EC15FD05B9F713C0DE
S113078080E20E942A03F70111917F01812F0E94C8
S113079032031F3F09F0012FEC14FD0489F706C052
S11307A02A9A0FEF03C02A9A0FEFEACF88EB91E061
S11307B00E945303802FA0960FB6F894DEBF0FBE9D
S11307C0CDBFDF91CF911F910F91FF90EF90DF90FC
S11307D0CF90BF9008950F93CF93DF932A9ACAE0E6
S11307E08FEF0E947103C150D9F7D0E00CC02FEFF6
S11307F081EE94E0215080409040E1F700C0000079
S1130800DF5FDA30C1F108E025E940E050E0BA01E9
S113081080E40E947703813051F735C02FEF81EED9
S113082094E0215080409040E1F700C00000DF5F79
S1130830DA3019F108E02FEF40E050E0BA0181E42A
S11308400E9477038111EACFDA30C9F02FEF40E03C
S113085052E060E070E080E50E94770310921A0293
S11308601092190210921502109216021092170299
S1130870109218020CC0CFEF0AC0CEEF08C0CEEF22
S113088006C0CFEF04C0DA30E1F3D0E0D3CF8C2F31
S1130890DF91CF910F9108954F925F926F927F9263
S11308A0AF92BF92CF92DF92EF92FF920F931F937A
S11308B0CF93DF932B013C017A01B22EA32E2A9809
S11308C081E50E947103D301C201072E7FE0B69532
S11308D0A795979587957A95D1F7702D0E94710306
S11308E0D301C201689416F8B695A7959795879594
S11308F01694D1F70E947103842D880F0E9471030E
S113090080E00E9471038FEF0E947103C4E6D0E07F
S113091002C0219771F08FEF0E9471038111F9CF0A
S1130920C4E6D0E008C0219731F4E114F10449F49D
S11309303BC0C4E6D0E08FEF0E9471038E3F99F76D
S1130940F4CFC0E0D0E08FEF0E9471032196CE1562
S1130950DF05C9F70115110579F0CB2CDA2CC0E0BD
S1130960D0E08FEF0E947103F60181936F0121960D
S1130970C017D107B0F302C0C0E0D0E0CE0DDF1D38
S1130980C115F2E0DF0740F48FEF0E947103219656
S1130990C11582E0D807C0F38FEF0E9471038FEF77
S11309A00E9471032A9A06C001151105B1F6C0E030
S11309B0D0E0EACFDF91CF911F910F91FF90EF909C
S11309C0DF90CF90BF90AF907F906F905F904F90EB
S11309D008950F931F938B019C010F2EF9E0369518
S11309E0279517950795FA95D1F7F02D00931502E1
S11309F010931602209317023093180271707093AB
S1130A001A02609319021F910F910895EF92FF92B9
S1130A100F931F93CF93C82FE82EF12C4091190206
S1130A2050911A026091150270911602809117027A
S1130A3090911802870122EE31E00E944C0420912B
S1130A40190230911A02020F131F011582E01807D0
S1130A5029F010931A020093190217C010921A0277
S1130A60109219028091150290911602A09117021A
S1130A70B09118020196A11DB11D809315029093A7
S1130A801602A0931702B09318028C2FCF911F91D6
S1130A900F91FF90EF900895CF92DF92EF92FF9223
S1130AA00F931F93CF93DF9387E690E00E941F0379
S1130AB00E94690383EB91E00E9453030E94EB03BD
S1130AC0C82F882351F08BEB91E00E9453038C2FA5
S1130AD00E9432038FEF9FEF4BC00E945300C82F38
S1130AE0882351F084EC91E00E9453038C2F0E94E0
S1130AF032038FEF9FEF3CC06EEC71E082ED91E02A
S1130B000E940902C82F8823E1F08BED91E00E9436
S1130B1053038C2F0E9432038FEF9FEF29C080E292
S1130B200E9434018823C9F0E6018150082F10E0A7
S1130B300D511E4F89910E942A03C017D107D1F786
S1130B400CC00F2EF2E0EF2EF2E0FF2EF02D0F2E50
S1130B50F2EECF2EF1E0DF2EF02DF701878590899C
S1130B60A189B289892B8A2B8B2BC9F680E090E06E
S1130B70DF91CF911F910F91FF90EF90DF90CF9075
S1130B800895A29FB001B39FC001A39F700D811D62
S1130B901124911DB29F700D811D1124911D089582
S1130BA00E94C105A59F900DB49F900DA49F800D38
S1130BB0911D11240895A0E0B0E0E1EEF5E00C945D
S1130BC07F08AE014B5F5F4FFA0161917191AF01F4
S1130BD080911D0290911E020E94F105E2E00C94A6
S1130BE09B08ACE0B0E0E7EFF5E00C946F087C0103
S1130BF06B018A01FC0117821682838181FFBDC1CA
S1130C00CE0101964C01F7019381F60193FD859184
S1130C1093FF81916F01882309F4ABC1853239F4C4
S1130C2093FD859193FF81916F01853229F4B7017A
S1130C3090E00E94D907E7CF512C312C20E02032DC
S1130C40A0F48B3269F030F4803259F0833269F4C5
S1130C5020612CC08D3239F0803339F4216026C0F4
S1130C602260246023C0286021C027FD27C030ED06
S1130C70380F3A3078F426FF06C0FAE05F9E300D54
S1130C801124532E13C08AE0389E300D1124332EC4
S1130C9020620CC08E3221F426FD6BC1206406C094
S1130CA08C3611F4206802C0883641F4F60193FDB5
S1130CB0859193FF81916F018111C1CF982F9F7D01
S1130CC09554933028F40C5F1F4FFFE3F9830DC054
S1130CD0833631F0833771F0833509F05BC022C06D
S1130CE0F801808189830E5F1F4F44244394512C63
S1130CF0540115C03801F2E06F0E711CF801A08098
S1130D00B18026FF03C0652D70E002C06FEF7FEF56
S1130D10C5012C870E94CE072C0183012C852F77D7
S1130D20222E17C03801F2E06F0E711CF801A0806A
S1130D30B18026FF03C0652D70E002C06FEF7FEF26
S1130D40C5012C870E94C3072C012C852068222E04
S1130D50830123FC1BC0832D90E048165906B0F490
S1130D60B70180E290E00E94D9073A94F4CFF501EC
S1130D7027FC859127FE81915F01B70190E00E94D5
S1130D80D90731103A94F1E04F1A51084114510433
S1130D9071F7E5C0843611F0893639F5F80127FF7B
S1130DA007C060817181828193810C5F1F4F08C0ED
S1130DB060817181072E000C880B990B0E5F1F4F09
S1130DC02F76722E97FF09C0909580957095619546
S1130DD07F4F8F4F9F4F2068722E2AE030E0A4018E
S1130DE00E941108A82EA81844C0853729F42F7E24
S1130DF0B22E2AE030E025C0F22FF97FBF2E8F36C5
S1130E00C1F018F4883579F0B4C0803719F0883708
S1130E1021F0AFC02F2F2061B22EB4FE0DC08B2D58
S1130E208460B82E09C024FF0AC09F2F9660B92E93
S1130E3006C028E030E005C020E130E002C020E137
S1130E4032E0F801B7FE07C060817181828193812D
S1130E500C5F1F4F06C06081718180E090E00E5FDF
S1130E601F4FA4010E941108A82EA818FB2DFF777C
S1130E707F2E76FE0BC0372D3E7FA51450F474FEF2
S1130E800AC072FC08C0372D3E7E05C0BA2C372D2F
S1130E9003C0BA2C01C0B52C34FF0DC0FE01EA0D0D
S1130EA0F11D8081803311F4397E09C032FF06C000
S1130EB0B394B39404C0832F867809F0B39433FDBC
S1130EC013C030FF06C05A2CB31418F4530C5B182B
S1130ED0B32CB31468F4B70180E290E03C870E941D
S1130EE0D907B3943C85F5CFB31410F43B1801C073
S1130EF0312C34FF12C0B70180E390E03C870E949C
S1130F00D9073C8532FF17C031FD03C088E790E064
S1130F1002C088E590E0B7010CC0832F867859F0B1
S1130F2031FF02C08BE201C080E237FD8DE2B701E0
S1130F3090E00E94D907A51438F4B70180E390E04B
S1130F400E94D9075A94F7CFAA94F401EA0DF11D2F
S1130F508081B70190E00E94D907A110F5CF33201A
S1130F6009F451CEB70180E290E00E94D9073A9487
S1130F70F6CFF7018681978102C08FEF9FEF2C9601
S1130F80E2E10C948B08FC01059061507040011063
S1130F90D8F7809590958E0F9F1F0895FC0161509E
S1130FA0704001900110D8F7809590958E0F9F1F87
S1130FB008950F931F93CF93DF93FB01238121FDAA
S1130FC003C08FEF9FEF28C022FF16C046815781D0
S1130FD0248135814217530744F4A081B1819D01D6
S1130FE02F5F3F4F318320838C93268137812F5F7E
S1130FF03F4F3783268310C0EB01092F182F00843D
S1131000F185E02D0995892BE1F68E819F8101966A
S11310109F838E83812F902FDF91CF911F910F910A
S11310200895FA01AA27283051F1203181F1E8947A
S11310306F936E7F6E5F7F4F8F4F9F4FAF4FB1E0C7
S11310403ED0B4E03CD0670F781F891F9A1FA11DC2
S1131050680F791F8A1F911DA11D6A0F711D811DC3
S1131060911DA11D20D009F468943F912AE0269F88
S113107011243019305D3193DEF6CF010895462FE7
S11310804770405D4193B3E00FD0C9F7F6CF462FC8
S11310904F70405D4A3318F0495D31FD4052419331
S11310A002D0A9F7EACFB4E0A695979587957795EE
S11310B06795BA95C9F700976105710508959B0175
S11310C0AC010A2E06945795479537952795BA95FE
S11310D0C9F7620F731F841F951FA01D08952F92D7
S11310E03F924F925F926F927F928F929F92AF92B4
S11310F0BF92CF92DF92EF92FF920F931F93CF9301
S1131100DF93CDB7DEB7CA1BDB0B0FB6F894DEBF97
S11311100FBECDBF09942A88398848885F846E84BD
S11311207D848C849B84AA84B984C884DF80EE8007
S1131130FD800C811B81AA81B981CE0FD11D0FB610
S1131140F894DEBF0FBECDBFED010895F894FFCF34
S113115046415420737461727420617420253038C0
S1131160582C20726F6F742064697220617420257A
S11311703038582C20646174612061742025303823
S1131180580A004E65787420636C75737465722018
S113119025640A00547279696E6720746F206F7039
S11311A0656E2066696C65205B25732E25735D0A68
S11311B000466F756E642066696C65205B252E3869
S11311C0732E252E33735D0A0046696C6520666FA5
S11311D0756E6420617420636C7573746572202568
S11311E064210A0046696C65206E6F7420666F7511
S11311F06E643A205B25732E25735D210A00434DEE
S113120044200053746172740D0A005344206572C3
S1131210723A2000464154206572723A20005458B4
S11312205400524541444D452020004F70656E3AAC
S1051230200098
S9030000FC
