:100000000C9434000C9451000C9451000C94510049
:100010000C9451000C9451000C9451000C9451001C
:100020000C9451000C9451000C9451000C9451000C
:100030000C9451000C9451000C9451000C945100FC
:100040000C9451000C9451000C9451000C945100EC
:100050000C9451000C9451000C9451000C945100DC
:100060000C9451000C94510011241FBECFEFD8E026
:10007000DEBFCDBF11E0A0E0B1E0EAECF6E102C0E6
:1000800005900D92A638B107D9F721E0A6E8B1E0B6
:1000900001C01D92A93BB207E1F70E9460000C94D9
:1000A000630B0C9400009F938F938CE191E09F93DE
:1000B0008F930E9498080F900F900F900F900895C3
:1000C000EF92FF920F931F93CF93DF93CDB7DEB7DD
:1000D000A2970FB6F894DEBF0FBECDBF0E944008B6
:1000E0000E9451080E94190188E891E00E9492053F
:1000F000882321F087E291E00E94530087E491E099
:100100000E94DF06882321F080E391E00E945300E3
:100110008E010F5F1F4F0F2EF0E4EF2EF1E0FF2E48
:10012000F02DAE014F5D5F4F60E270E0C8010E94AC
:100130003B07882321F088E391E00E94530029A126
:100140003AA12115310579F03F932F931F930F9317
:10015000FF92EF920E9498080F900F900F900F90CF
:100160000F900F90DECF80E090E0A2960FB6F8944B
:10017000DEBF0FBECDBFDF91CF911F910F91FF90DA
:10018000EF900895229A84B1886284B92C9A83E50D
:100190008CBD08958FEF8EBD0DB407FEFDCF8EB5DB
:1001A00008958EBD0DB407FEFDCF8EB50895FF9264
:1001B0000F931F93CF93DF93C82FD42F152F062FA4
:1001C000F72E88234CF440E050E0BA0187E70E9404
:1001D000D700823040F5CF772A9A0E94CA002A9829
:1001E0000E94CA008C2F0E94D1008F2D0E94D10046
:1001F000802F0E94D100812F0E94D1008D2F0E945C
:10020000D100C03421F0C83421F487E803C085E967
:1002100001C081E00E94D100CAE00E94CA00882388
:1002200014F4C150D1F7DF91CF911F910F91FF903E
:100230000895CF92DF92EF92FF920F931F93CF9387
:10024000DF9300D000D0CDB7DEB70E94C2002A9A5B
:100250000AE010E00E94CA0001501109D9F72A985B
:1002600040E050E0BA0180E40E94D700813009F0FC
:100270007DC04AEA51E060E070E088E40E94D70067
:10028000813009F042C0CE0101966C017E0195E0FB
:10029000E90EF11C86010E94CA00F80181938F01CA
:1002A000EE15FF05C1F78B81813009F061C08C81AB
:1002B0008A3A31F0F12C6CC00150110919F45AC07E
:1002C00008EA11E640E050E060E070E489EE0E9448
:1002D000D7008111F1CF012B09F44EC040E050E06E
:1002E000BA018AE70E94D700811148C00E94CA0063
:1002F000F60181936F01EE15FF05C1F7898186FD37
:100300003FC06894FF24F2F843C040E050E0BA01D7
:1003100089EE0E94D700823038F0FF24F3940F2E2C
:10032000F1E4EF2EF02D07C06894FF24F1F80F2EB2
:10033000F9EEEF2EF02D08EA11E603C00150110985
:1003400021F140E050E0BA018E2D0E94D7008111CA
:10035000F5CF012BE1F040E052E060E070E080E595
:100360000E94D7008823A1F0F12C12C0F12C10C0FC
:10037000F12C0EC0F12C0CC0F12C0AC0F12C08C0DD
:100380000F2EFCE0FF2EF02D03C0F12C01C0F12C4C
:10039000F092B2012A9A0E94CA0081E0F11080E036
:1003A0000F900F900F900F90DF91CF911F910F91B1
:1003B000FF90EF90DF90CF900895CF92DF92EF9271
:1003C000FF920F931F93CF93DF937C01690180917C
:1003D000B20183FD09C0032E39E0440F551F661F8B
:1003E000771F3A95D1F7302D81E50E94D700811112
:1003F0002CC0C0E3D5E70E94CA008F3F21F42197AB
:10040000D1F7C1E025C08E3F11F5C2E0D2E0C01B9C
:10041000D10BCC19DD09C114D10431F00E94CA00FE
:1004200081E0C81AD108D1F7E114F10441F00E942B
:10043000CA00F70181937F0101501109C1F70E94A1
:10044000CA002197E1F7C0E003C0C1E001C0C1E0EC
:100450002A9A0E94CA008C2FDF91CF911F910F9191
:10046000FF90EF90DF90CF9008950F931F93E0914E
:100470008601F09187019B01AC01225031094109AD
:10048000510986819781A085B1850297A109B1099B
:10049000281739074A075B0768F4A281B0E00E9479
:1004A0007E080289138924893589600F711F821F94
:1004B000931F03C060E070E0CB011F910F9108957E
:1004C0000F931F93CF93DF93FC01A0918601B0910E
:1004D00087011182108264817581868197816130E4
:1004E00071058105910591F116960D911D912D9142
:1004F0003C911997601771078207930748F5EF0140
:10050000611571058105910529F58C91833039F5C7
:100510001E966D917D918D919C9151976087718709
:1005200082879387611571058105910519F00E94F5
:10053000350206C01E966D917D918D919C915197CB
:100540006C877D878E879F8780E00EC081E00CC01E
:1005500081E00AC06087718782879387E8CF108621
:10056000118612861386E6CFDF91CF911F910F91EE
:100570000895CF92DF92EF92FF920F931F93CF9344
:10058000DF93EC016A017B0102E010E02EEF31E025
:100590000E94DD01811126C08881998185359A4AA2
:1005A00019F526E330E0B701A601CE010E94DD0176
:1005B000811105C08881998186349144B9F002E0A7
:1005C00010E022E530E0B701A601CE010E94DD0176
:1005D00081110EC081E0288139812634314449F4EB
:1005E00080E007C083E005C082E003C080E001C076
:1005F00081E0DF91CF911F910F91FF90EF90DF90FD
:10060000CF9008954F925F926F927F92AF92BF9278
:10061000CF92DF92EF92FF920F931F93CF93DF93CE
:1006200000D000D0CDB7DEB76B017C01A090860171
:10063000B090870182E0C816D104E104F10408F407
:10064000B6C0F50186819781A085B185C816D90607
:10065000EA06FB0608F0B0C08081823009F461C070
:10066000833009F47CC0813009F0ABC02601569478
:1006700047944C0C5D1C92013170452C55244694D6
:100680002F3FF1E03F0791F0F501428553856485E6
:100690007585440D551D611D711D02E010E0CE01F0
:1006A00001960E94DD01882359F190C0612C712CC4
:1006B000F5014285538564857585440D551D661D7C
:1006C000771D01E010E02FEF31E0CE0101960E948E
:1006D000DD01811180C0F5014285538564857585F2
:1006E0004F5F5F4F6F4F7F4F440D551D661D771D48
:1006F00020E030E0CE0102960E94DD01811170C041
:1007000069817A81C0FE09C0729562956F70672712
:100710007F70672780E090E071C07F7080E090E09C
:100720006DC096013327220F331F77276F2D5E2D63
:100730004D2DF50182859385A485B585480F591FF8
:100740006A1F7B1F02E010E0CE0101960E94DD01CE
:1007500081114BC069817A8180E090E04FC09601A1
:100760002F773327220F331F220F331F689416F879
:10077000F694E794D794C7941694D1F7F50142857F
:100780005385648575854C0D5D1D6E1D7F1D04E0D0
:1007900010E0CE0101960E94DD0181112BC08981FC
:1007A0009A81AB81BC81BC01CD019F7027C061E003
:1007B00070E080E090E022C061E070E080E090E0D6
:1007C0001DC061E070E080E090E018C061E070E082
:1007D00080E090E013C061E070E080E090E00EC047
:1007E00061E070E080E090E009C061E070E080E0EE
:1007F00090E004C061E070E080E090E00F900F9026
:100800000F900F90DF91CF911F910F91FF90EF907C
:10081000DF90CF90BF90AF907F906F905F904F90A0
:100820000895CF92DF92EF92FF920F931F93CF9391
:10083000DF93E0908601F0908701FC01C081D181B7
:10084000219609F45CC044855585668577854115F8
:1008500051056105710509F454C08C01CE018F70FA
:100860009927892B09F046C04F5F5F4F6F4F7F4F2D
:10087000448755876687778740855185628573856C
:10088000411551056105710539F4F70184819581A0
:10089000C817D907C0F52EC0F701828190E00197F3
:1008A0009E01329522952F7023273F7023278223A4
:1008B0009323892BF9F4CB01BA010E940203623021
:1008C00071058105910508F1F701C680D780E084A4
:1008D000F1846C157D058E059F05C8F4F8016087CD
:1008E0007187828793870E943502F8016487758734
:1008F00086879787F801D183C08380E009C083E0B1
:1009000007C083E005C083E003C081E001C083E04D
:10091000DF91CF911F910F91FF90EF90DF90CF90DB
:1009200008952F923F924F925F926F927F928F9293
:100930009F92AF92BF92CF92DF92EF92FF920F936E
:100940001F93CF93DF937C016B015A01DA018C91E5
:10095000803231F4FA0131965F0181918032E1F306
:100960008F3219F4BFEFAB1ABB0AF701148215825C
:1009700016821782D5018C91813238F4C7010E940A
:100980006002582FF6011082B9C06894992495F836
:10099000612C6894442443F8242C0F2EFBE03F2E56
:1009A000F02D55245394E6012B96852C762CF701D7
:1009B000A281B381FD01CD010B969192E817F90751
:1009C000E1F7962D862D342D01C0822F21E0280FCE
:1009D000F501E80FF11D8081813290F08F3281F0B6
:1009E0008E3209F483C0931758F44FE9480F4A3107
:1009F00008F48052FD01E90FF11D80839F5FE5CF70
:100A0000A20EB11C952D813208F0962D1B969C9359
:100A1000C7010E946002582F81116EC0D7012D912D
:100A20003C9111972F703327220F331F2295329557
:100A3000307F3227207F32271C964D915D916D913A
:100A40007C911F9700E210E0C6010E94DD01582D45
:100A5000811101C0572D51114FC0F60180818823AB
:100A6000C1F0838583FD0EC0D70112962D913C9174
:100A70001397D90103C0EC17FD07A9F041919D918F
:100A80004917C9F3C7010E941104582F882331F276
:100A900033C0D7011296ED91FC911397838588237B
:100AA00009F153E02BC0F9019385911127C084FF10
:100AB0001BC0D60154968D919C915597A0E0B0E053
:100AC000DC0199278827F601428D538D60E070E0A4
:100AD000842B952BA62BB72BF70184839583A683B4
:100AE000B78365CF54E00AC054E008C0383009F03D
:100AF00087CF922D332D69CF533059F2852FDF9157
:100B0000CF911F910F91FF90EF90DF90CF90BF900A
:100B1000AF909F908F907F906F905F904F903F909D
:100B20002F9008954F925F926F927F928F929F9233
:100B3000AF92BF92EF92FF920F931F93CF93DF93E9
:100B4000CDB7DEB7A8970FB6F894DEBF0FBECDBF06
:100B50001092870110928601009709F4F5C07C017C
:100B60000E94190180FF0FC01F9282E08F9382E5DF
:100B700091E09F938F930E9498080F900F900F9091
:100B80000F9082E007C140E050E0BA01CE0101962B
:100B90000E94B9028130D9F400E110E02EEB31E07F
:100BA00040E050E0BA01CE0101960E94DD018111C2
:100BB00013C08D81882309F149845A846B847C8415
:100BC000B301A201CE0101960E94B90203C0412CDB
:100BD000512C3201833079F41F9281E08F9384E6A7
:100BE00091E09F938F930E9498080F900F900F9021
:100BF0000F9081E0CFC0882379F01F9287E08F9318
:100C000082E791E09F938F930E9498080F900F9036
:100C10000F900F9087E0BEC004E210E02DE030E0BE
:100C2000B301A201CE0101960E94DD0181118EC0A7
:100C30002A853B8540E050E02115310541055105ED
:100C400021F4288D398D4A8D5B8DAC81B0E00E94F6
:100C50007E086DA37EA38FA398A70A811B8120E045
:100C600030E0400E511E621E731ED7011A964D923F
:100C70005D926D927C921D97498112964C931297CA
:100C80008D809E8015969C928E9214978F81988568
:100C9000A0E0B0E00097A105B10521F48C899D8901
:100CA000AE89BF89969487949694879496948794F6
:100CB00096948794A12CB12C801B910BA20BB30BA3
:100CC0000DA11EA12FA138A5801B910BA20BB30B68
:100CD000BC01CD01681979098A099B09242F30E0EC
:100CE00040E050E00E945C08BA01A9014E5F5F4FEE
:100CF0006F4F7F4FD70116964D935D936D937C9305
:100D00001997473FBFE05B076105710580F581E0FA
:100D10002FC0840C951CA61CB71C0DA11EA12FA1D1
:100D200038A5800E911EA21EB31ED70152968D9239
:100D30009D92AD92BC92559711961C92F0928701AC
:100D4000E092860180E026C080E024C081E022C0DD
:100D5000F70180838DA19EA1AFA1B8A5840D951D3B
:100D6000A61DB71D86879787A08BB18BD2CF82E057
:100D7000473F5F4F6105710558F383E0D7018C93BE
:100D800088A199A1AAA1BBA1F70186879787A08B0B
:100D9000B18BBFCFA8960FB6F894DEBF0FBECDBF04
:100DA000DF91CF911F910F91FF90EF90BF90AF9087
:100DB0009F908F907F906F905F904F9008950F93CA
:100DC0001F93CF93DF93CDB7DEB7EC970FB6F894B0
:100DD000DEBF0FBECDBF00918601109187010115C6
:100DE0001105C9F1AC01F8011182CE0141969C8335
:100DF0008B83BE01635E7F4F40970E9491048111F7
:100E00002FC08D8D882349F188A584FD28C089A92C
:100E10009AA9A0E0B0E0DC01992788274FA958AD36
:100E200060E070E0842B952BA62BB72BF801868F02
:100E3000978FA0A3B1A389AD9AADABADBCAD828FA6
:100E4000938FA48FB58F168A178A108E118E81E02A
:100E5000818380E005C086E003C083E001C083E0B9
:100E6000EC960FB6F894DEBF0FBECDBFDF91CF91E9
:100E70001F910F9108952F923F924F925F926F9220
:100E80007F928F929F92AF92BF92CF92DF92EF921A
:100E9000FF920F931F93CF93DF932C016B013A01C5
:100EA000E0908601F0908701FA0111821082E1142E
:100EB000F10409F4B5C0F701818180FFB3C0828DD0
:100EC000938DA48DB58D46895789608D718D841B56
:100ED000950BA60BB70BA60160E070E08417950791
:100EE000A607B70708F46C01C114D10409F49CC02B
:100EF0005201812C6894992491F8312C212CF7010E
:100F000086899789A08DB18DAC01BD01517066278E
:100F10007727452B462B472B09F042C0C281C15091
:100F2000AC01BD01032E39E076956795579547953D
:100F30003A95D1F7302DC423D9F4892B8A2B8B2BEA
:100F400029F4668D778D80A191A107C0F70162A178
:100F500073A184A195A10E940203623071058105ED
:100F6000910508F459C0F70162A373A384A395A364
:100F7000F70162A173A184A195A10E9435026115B8
:100F800071058105910509F447C0DC01CB018C0F87
:100F9000911DA11DB11DF70186A397A3A0A7B1A71D
:100FA000F701268937893170C401821B930BE60152
:100FB0008C159D0508F4EC01F70146A157A160A529
:100FC00071A54114510419F08A2D9B2D02C0832D67
:100FD000922D8E010E94DD0181111EC0F7018689CC
:100FE0009789A08DB18D8C0F9D1FA11DB11D868B82
:100FF000978BA08FB18FAC0EBD1ECC1ADD0AF3010A
:1010000080819181C80FD91FD183C083C114D104BD
:1010100009F075CF80E009C0F701118281E005C0B9
:1010200086E003C085E001C080E0DF91CF911F9191
:101030000F91FF90EF90DF90CF90BF90AF909F9077
:101040008F907F906F905F904F903F902F9008957A
:10105000CF93C82F8A3019F48DE00E942808E0EC65
:10106000F0E0908195FFFDCFC093C600CF91089529
:10107000E0ECF0E080818823ECF78091C6000895D1
:101080001092C50087E68093C400E0ECF0E0808118
:101090008D7F808386E08093C20088E18093C100C9
:1010A0000895E3EBF1E08EE091E09383828380E0AA
:1010B00091E0918380830895A1E21A2EAA1BBB1BA5
:1010C000FD010DC0AA1FBB1FEE1FFF1FA217B30714
:1010D000E407F50720F0A21BB30BE40BF50B661F2A
:1010E000771F881F991F1A9469F7609570958095EE
:1010F00090959B01AC01BD01CF0108950E94890824
:10110000A59F900DB49F900DA49F800D911D11245B
:101110000895A29FB001B39FC001A39F700D811DD0
:101120001124911DB29F700D811D1124911D0895F0
:10113000A0E0B0E0EEE9F8E00C943C0BAE014B5FB0
:101140005F4FFA0161917191AF018091B50190916A
:10115000B6010E94AE08E2E00C94580BACE0B0E09F
:10116000E4EBF8E00C942C0B7C016B018A01FC0190
:1011700017821682838181FFBDC1CE0101964C0189
:10118000F7019381F60193FD859193FF81916F01A2
:10119000882309F4ABC1853239F493FD859193FF1F
:1011A00081916F01853229F4B70190E00E94960A7F
:1011B000E7CF512C312C20E02032A0F48B3269F0A3
:1011C00030F4803259F0833269F420612CC08D32C2
:1011D00039F0803339F4216026C02260246023C0B6
:1011E000286021C027FD27C030ED380F3A3078F451
:1011F00026FF06C0FAE05F9E300D1124532E13C067
:101200008AE0389E300D1124332E20620CC08E32BD
:1012100021F426FD6BC1206406C08C3611F42068D1
:1012200002C0883641F4F60193FD859193FF8191C8
:101230006F018111C1CF982F9F7D9554933028F471
:101240000C5F1F4FFFE3F9830DC0833631F0833706
:1012500071F0833509F05BC022C0F8018081898379
:101260000E5F1F4F44244394512C540115C0380184
:10127000F2E06F0E711CF801A080B18026FF03C060
:10128000652D70E002C06FEF7FEFC5012C870E94D3
:101290008B0A2C0183012C852F77222E17C0380151
:1012A000F2E06F0E711CF801A080B18026FF03C030
:1012B000652D70E002C06FEF7FEFC5012C870E94A3
:1012C000800A2C012C852068222E830123FC1BC060
:1012D000832D90E048165906B0F4B70180E290E003
:1012E0000E94960A3A94F4CFF50127FC859127FED7
:1012F00081915F01B70190E00E94960A31103A9403
:10130000F1E04F1A51084114510471F7E5C08436D9
:1013100011F0893639F5F80127FF07C06081718126
:10132000828193810C5F1F4F08C060817181072EFD
:10133000000C880B990B0E5F1F4F2F76722E97FFB4
:1013400009C090958095709561957F4F8F4F9F4F05
:101350002068722E2AE030E0A4010E94CE0AA82E56
:10136000A81844C0853729F42F7EB22E2AE030E039
:1013700025C0F22FF97FBF2E8F36C1F018F48835C3
:1013800079F0B4C0803719F0883721F0AFC02F2F23
:101390002061B22EB4FE0DC08B2D8460B82E09C022
:1013A00024FF0AC09F2F9660B92E06C028E030E0C7
:1013B00005C020E130E002C020E132E0F801B7FED4
:1013C00007C060817181828193810C5F1F4F06C0CD
:1013D0006081718180E090E00E5F1F4FA4010E9448
:1013E000CE0AA82EA818FB2DFF777F2E76FE0BC005
:1013F000372D3E7FA51450F474FE0AC072FC08C05D
:10140000372D3E7E05C0BA2C372D03C0BA2C01C043
:10141000B52C34FF0DC0FE01EA0DF11D8081803333
:1014200011F4397E09C032FF06C0B394B39404C0EE
:10143000832F867809F0B39433FD13C030FF06C0C4
:101440005A2CB31418F4530C5B18B32CB31468F46F
:10145000B70180E290E03C870E94960AB3943C85F5
:10146000F5CFB31410F43B1801C0312C34FF12C077
:10147000B70180E390E03C870E94960A3C8532FFEA
:1014800017C031FD03C088E790E002C088E590E016
:10149000B7010CC0832F867859F031FF02C08BE270
:1014A00001C080E237FD8DE2B70190E00E94960A0C
:1014B000A51438F4B70180E390E00E94960A5A948C
:1014C000F7CFAA94F401EA0DF11D8081B70190E0F5
:1014D0000E94960AA110F5CF332009F451CEB7012E
:1014E00080E290E00E94960A3A94F6CFF701868156
:1014F000978102C08FEF9FEF2C96E2E10C94480B8E
:10150000FC010590615070400110D8F780959095CE
:101510008E0F9F1F0895FC016150704001900110D3
:10152000D8F7809590958E0F9F1F08950F931F9366
:10153000CF93DF93FB01238121FD03C08FEF9FEF4A
:1015400028C022FF16C04681578124813581421769
:10155000530744F4A081B1819D012F5F3F4F318338
:1015600020838C93268137812F5F3F4F37832683DB
:1015700010C0EB01092F182F0084F185E02D09958B
:10158000892BE1F68E819F8101969F838E83812F27
:10159000902FDF91CF911F910F910895FA01AA2703
:1015A000283051F1203181F1E8946F936E7F6E5FA6
:1015B0007F4F8F4F9F4FAF4FB1E03ED0B4E03CD054
:1015C000670F781F891F9A1FA11D680F791F8A1F37
:1015D000911DA11D6A0F711D811D911DA11D20D09E
:1015E00009F468943F912AE0269F11243019305D58
:1015F0003193DEF6CF010895462F4770405D419349
:10160000B3E00FD0C9F7F6CF462F4F70405D4A3395
:1016100018F0495D31FD4052419302D0A9F7EACF5D
:10162000B4E0A6959795879577956795BA95C9F78C
:1016300000976105710508959B01AC010A2E06947F
:101640005795479537952795BA95C9F7620F731F38
:10165000841F951FA01D08952F923F924F925F9275
:101660006F927F928F929F92AF92BF92CF92DF92B2
:10167000EF92FF920F931F93CF93DF93CDB7DEB717
:10168000CA1BDB0B0FB6F894DEBF0FBECDBF0994AB
:101690002A88398848885F846E847D848C849B8402
:1016A000AA84B984C884DF80EE80FD800C811B8110
:1016B000AA81B981CE0FD11D0FB6F894DEBF0FBE3F
:0A16C000CDBFED010895F894FFCFAF
:1016CA0000000001000000000000380800000000CF
:1016DA000002000000002808000000004572726F36
:1016EA00723A2025730A0070665F6D6F756E74001A
:1016FA0070665F6F70656E0070665F726561640028
:10170A0025642C20256400524541444D452E5458E9
:10171A0054006672206E6F742072656164793A2093
:10172A0025640A006469736B206572723A20256425
:10173A000A006E6F2066696C652073797374656D33
:06174A003A2025640A00AC
:00000001FF
